{
  "contractName": "Provenance",
  "abi": [
    {
      "inputs": [],
      "stateMutability": "nonpayable",
      "type": "constructor"
    },
    {
      "inputs": [
        {
          "internalType": "string",
          "name": "_name",
          "type": "string"
        },
        {
          "internalType": "uint256",
          "name": "_phoneNo",
          "type": "uint256"
        },
        {
          "internalType": "string",
          "name": "_cityState",
          "type": "string"
        },
        {
          "internalType": "string",
          "name": "_country",
          "type": "string"
        }
      ],
      "name": "addProducer",
      "outputs": [],
      "stateMutability": "nonpayable",
      "type": "function"
    },
    {
      "inputs": [
        {
          "internalType": "address",
          "name": "_producer",
          "type": "address"
        }
      ],
      "name": "removeProducer",
      "outputs": [],
      "stateMutability": "nonpayable",
      "type": "function"
    },
    {
      "inputs": [
        {
          "internalType": "address",
          "name": "_producer",
          "type": "address"
        }
      ],
      "name": "findProducer",
      "outputs": [
        {
          "internalType": "string",
          "name": "",
          "type": "string"
        },
        {
          "internalType": "uint256",
          "name": "",
          "type": "uint256"
        },
        {
          "internalType": "string",
          "name": "",
          "type": "string"
        },
        {
          "internalType": "string",
          "name": "",
          "type": "string"
        },
        {
          "internalType": "bool",
          "name": "",
          "type": "bool"
        }
      ],
      "stateMutability": "view",
      "type": "function",
      "constant": true
    },
    {
      "inputs": [
        {
          "internalType": "address",
          "name": "_producer",
          "type": "address"
        }
      ],
      "name": "certifyProducer",
      "outputs": [
        {
          "internalType": "bool",
          "name": "success",
          "type": "bool"
        }
      ],
      "stateMutability": "nonpayable",
      "type": "function"
    },
    {
      "inputs": [
        {
          "internalType": "string",
          "name": "serialNo",
          "type": "string"
        },
        {
          "internalType": "uint256[]",
          "name": "_locationData",
          "type": "uint256[]"
        }
      ],
      "name": "addProduct",
      "outputs": [],
      "stateMutability": "nonpayable",
      "type": "function"
    },
    {
      "inputs": [
        {
          "internalType": "string",
          "name": "serialNo",
          "type": "string"
        }
      ],
      "name": "removeProduct",
      "outputs": [
        {
          "internalType": "bool",
          "name": "success",
          "type": "bool"
        }
      ],
      "stateMutability": "nonpayable",
      "type": "function"
    },
    {
      "inputs": [
        {
          "internalType": "string",
          "name": "serialNo",
          "type": "string"
        }
      ],
      "name": "findProduct",
      "outputs": [
        {
          "internalType": "address",
          "name": "",
          "type": "address"
        },
        {
          "internalType": "uint256[]",
          "name": "",
          "type": "uint256[]"
        },
        {
          "internalType": "uint256",
          "name": "",
          "type": "uint256"
        }
      ],
      "stateMutability": "view",
      "type": "function",
      "constant": true
    }
  ],
  "bytecode": "0x608060405234801561001057600080fd5b50336000806101000a81548173ffffffffffffffffffffffffffffffffffffffff021916908373ffffffffffffffffffffffffffffffffffffffff160217905550611903806100606000396000f3fe608060405234801561001057600080fd5b506004361061007d5760003560e01c80639726dd191161005b5780639726dd19146100ea578063a5bfd7c91461011a578063c7a69e0b14610136578063e2d5d3221461016a5761007d565b80630f10ee0b146100825780633f185b6c1461009e57806353efc828146100ba575b600080fd5b61009c600480360381019061009791906111b1565b61019c565b005b6100b860048036038101906100b39190611287565b61031a565b005b6100d460048036038101906100cf9190611287565b610439565b6040516100e191906112cf565b60405180910390f35b61010460048036038101906100ff91906112ea565b61052d565b60405161011191906112cf565b60405180910390f35b610134600480360381019061012f9190611333565b610627565b005b610150600480360381019061014b9190611287565b610873565b604051610161959493929190611485565b60405180910390f35b610184600480360381019061017f91906112ea565b610d1e565b604051610193939291906115ba565b60405180910390f35b600073ffffffffffffffffffffffffffffffffffffffff166002836040516101c49190611634565b908152602001604051809103902060000160009054906101000a900473ffffffffffffffffffffffffffffffffffffffff1673ffffffffffffffffffffffffffffffffffffffff1614801561021b57506000825114155b61025a576040517f08c379a0000000000000000000000000000000000000000000000000000000008152600401610251906116e3565b60405180910390fd5b3360028360405161026b9190611634565b908152602001604051809103902060000160006101000a81548173ffffffffffffffffffffffffffffffffffffffff021916908373ffffffffffffffffffffffffffffffffffffffff160217905550806002836040516102cb9190611634565b908152602001604051809103902060010190805190602001906102ef929190610e08565b50426002836040516103019190611634565b9081526020016040518091039020600201819055505050565b60008054906101000a900473ffffffffffffffffffffffffffffffffffffffff1673ffffffffffffffffffffffffffffffffffffffff163373ffffffffffffffffffffffffffffffffffffffff16146103a8576040517f08c379a000000000000000000000000000000000000000000000000000000000815260040161039f9061174f565b60405180910390fd5b600160008273ffffffffffffffffffffffffffffffffffffffff1673ffffffffffffffffffffffffffffffffffffffff168152602001908152602001600020600080820160006103f89190610e55565b60018201600090556002820160006104109190610e55565b6003820160006104209190610e55565b6004820160006101000a81549060ff0219169055505050565b60008060009054906101000a900473ffffffffffffffffffffffffffffffffffffffff1673ffffffffffffffffffffffffffffffffffffffff163373ffffffffffffffffffffffffffffffffffffffff16146104ca576040517f08c379a00000000000000000000000000000000000000000000000000000000081526004016104c19061174f565b60405180910390fd5b60018060008473ffffffffffffffffffffffffffffffffffffffff1673ffffffffffffffffffffffffffffffffffffffff16815260200190815260200160002060040160006101000a81548160ff02191690831515021790555060019050919050565b60008060009054906101000a900473ffffffffffffffffffffffffffffffffffffffff1673ffffffffffffffffffffffffffffffffffffffff163373ffffffffffffffffffffffffffffffffffffffff16146105be576040517f08c379a00000000000000000000000000000000000000000000000000000000081526004016105b59061174f565b60405180910390fd5b6002826040516105ce9190611634565b9081526020016040518091039020600080820160006101000a81549073ffffffffffffffffffffffffffffffffffffffff02191690556001820160006106149190610e95565b6002820160009055505060019050919050565b6000600160003373ffffffffffffffffffffffffffffffffffffffff1673ffffffffffffffffffffffffffffffffffffffff16815260200190815260200160002060000180546106769061179e565b905014801561068757506000845114155b6106c6576040517f08c379a00000000000000000000000000000000000000000000000000000000081526004016106bd90611841565b60405180910390fd5b83600160003373ffffffffffffffffffffffffffffffffffffffff1673ffffffffffffffffffffffffffffffffffffffff168152602001908152602001600020600001908051906020019061071c929190610eb6565b5082600160003373ffffffffffffffffffffffffffffffffffffffff1673ffffffffffffffffffffffffffffffffffffffff1681526020019081526020016000206001018190555081600160003373ffffffffffffffffffffffffffffffffffffffff1673ffffffffffffffffffffffffffffffffffffffff16815260200190815260200160002060020190805190602001906107ba929190610eb6565b5080600160003373ffffffffffffffffffffffffffffffffffffffff1673ffffffffffffffffffffffffffffffffffffffff1681526020019081526020016000206003019080519060200190610811929190610eb6565b506000600160003373ffffffffffffffffffffffffffffffffffffffff1673ffffffffffffffffffffffffffffffffffffffff16815260200190815260200160002060040160006101000a81548160ff02191690831515021790555050505050565b60606000606080600080600160008873ffffffffffffffffffffffffffffffffffffffff1673ffffffffffffffffffffffffffffffffffffffff16815260200190815260200160002060000180546108ca9061179e565b9050118061091b57506000600160008873ffffffffffffffffffffffffffffffffffffffff1673ffffffffffffffffffffffffffffffffffffffff1681526020019081526020016000206001015414155b8061097557506000600160008873ffffffffffffffffffffffffffffffffffffffff1673ffffffffffffffffffffffffffffffffffffffff16815260200190815260200160002060020180546109709061179e565b905014155b806109cf57506000600160008873ffffffffffffffffffffffffffffffffffffffff1673ffffffffffffffffffffffffffffffffffffffff16815260200190815260200160002060030180546109ca9061179e565b905014155b610a0e576040517f08c379a0000000000000000000000000000000000000000000000000000000008152600401610a05906118ad565b60405180910390fd5b600160008773ffffffffffffffffffffffffffffffffffffffff1673ffffffffffffffffffffffffffffffffffffffff168152602001908152602001600020600001600160008873ffffffffffffffffffffffffffffffffffffffff1673ffffffffffffffffffffffffffffffffffffffff16815260200190815260200160002060010154600160008973ffffffffffffffffffffffffffffffffffffffff1673ffffffffffffffffffffffffffffffffffffffff168152602001908152602001600020600201600160008a73ffffffffffffffffffffffffffffffffffffffff1673ffffffffffffffffffffffffffffffffffffffff168152602001908152602001600020600301600160008b73ffffffffffffffffffffffffffffffffffffffff1673ffffffffffffffffffffffffffffffffffffffff16815260200190815260200160002060040160009054906101000a900460ff16848054610b739061179e565b80601f0160208091040260200160405190810160405280929190818152602001828054610b9f9061179e565b8015610bec5780601f10610bc157610100808354040283529160200191610bec565b820191906000526020600020905b815481529060010190602001808311610bcf57829003601f168201915b50505050509450828054610bff9061179e565b80601f0160208091040260200160405190810160405280929190818152602001828054610c2b9061179e565b8015610c785780601f10610c4d57610100808354040283529160200191610c78565b820191906000526020600020905b815481529060010190602001808311610c5b57829003601f168201915b50505050509250818054610c8b9061179e565b80601f0160208091040260200160405190810160405280929190818152602001828054610cb79061179e565b8015610d045780601f10610cd957610100808354040283529160200191610d04565b820191906000526020600020905b815481529060010190602001808311610ce757829003601f168201915b505050505091509450945094509450945091939590929450565b600060606000600284604051610d349190611634565b908152602001604051809103902060000160009054906101000a900473ffffffffffffffffffffffffffffffffffffffff16600285604051610d769190611634565b9081526020016040518091039020600101600286604051610d979190611634565b90815260200160405180910390206002015481805480602002602001604051908101604052809291908181526020018280548015610df457602002820191906000526020600020905b815481526020019060010190808311610de0575b505050505091509250925092509193909250565b828054828255906000526020600020908101928215610e44579160200282015b82811115610e43578251825591602001919060010190610e28565b5b509050610e519190610f3c565b5090565b508054610e619061179e565b6000825580601f10610e735750610e92565b601f016020900490600052602060002090810190610e919190610f3c565b5b50565b5080546000825590600052602060002090810190610eb39190610f3c565b50565b828054610ec29061179e565b90600052602060002090601f016020900481019282610ee45760008555610f2b565b82601f10610efd57805160ff1916838001178555610f2b565b82800160010185558215610f2b579182015b82811115610f2a578251825591602001919060010190610f0f565b5b509050610f389190610f3c565b5090565b5b80821115610f55576000816000905550600101610f3d565b5090565b6000604051905090565b600080fd5b600080fd5b600080fd5b600080fd5b6000601f19601f8301169050919050565b7f4e487b7100000000000000000000000000000000000000000000000000000000600052604160045260246000fd5b610fc082610f77565b810181811067ffffffffffffffff82111715610fdf57610fde610f88565b5b80604052505050565b6000610ff2610f59565b9050610ffe8282610fb7565b919050565b600067ffffffffffffffff82111561101e5761101d610f88565b5b61102782610f77565b9050602081019050919050565b82818337600083830152505050565b600061105661105184611003565b610fe8565b90508281526020810184848401111561107257611071610f72565b5b61107d848285611034565b509392505050565b600082601f83011261109a57611099610f6d565b5b81356110aa848260208601611043565b91505092915050565b600067ffffffffffffffff8211156110ce576110cd610f88565b5b602082029050602081019050919050565b600080fd5b6000819050919050565b6110f7816110e4565b811461110257600080fd5b50565b600081359050611114816110ee565b92915050565b600061112d611128846110b3565b610fe8565b905080838252602082019050602084028301858111156111505761114f6110df565b5b835b8181101561117957806111658882611105565b845260208401935050602081019050611152565b5050509392505050565b600082601f83011261119857611197610f6d565b5b81356111a884826020860161111a565b91505092915050565b600080604083850312156111c8576111c7610f63565b5b600083013567ffffffffffffffff8111156111e6576111e5610f68565b5b6111f285828601611085565b925050602083013567ffffffffffffffff81111561121357611212610f68565b5b61121f85828601611183565b9150509250929050565b600073ffffffffffffffffffffffffffffffffffffffff82169050919050565b600061125482611229565b9050919050565b61126481611249565b811461126f57600080fd5b50565b6000813590506112818161125b565b92915050565b60006020828403121561129d5761129c610f63565b5b60006112ab84828501611272565b91505092915050565b60008115159050919050565b6112c9816112b4565b82525050565b60006020820190506112e460008301846112c0565b92915050565b600060208284031215611300576112ff610f63565b5b600082013567ffffffffffffffff81111561131e5761131d610f68565b5b61132a84828501611085565b91505092915050565b6000806000806080858703121561134d5761134c610f63565b5b600085013567ffffffffffffffff81111561136b5761136a610f68565b5b61137787828801611085565b945050602061138887828801611105565b935050604085013567ffffffffffffffff8111156113a9576113a8610f68565b5b6113b587828801611085565b925050606085013567ffffffffffffffff8111156113d6576113d5610f68565b5b6113e287828801611085565b91505092959194509250565b600081519050919050565b600082825260208201905092915050565b60005b8381101561142857808201518184015260208101905061140d565b83811115611437576000848401525b50505050565b6000611448826113ee565b61145281856113f9565b935061146281856020860161140a565b61146b81610f77565b840191505092915050565b61147f816110e4565b82525050565b600060a082019050818103600083015261149f818861143d565b90506114ae6020830187611476565b81810360408301526114c0818661143d565b905081810360608301526114d4818561143d565b90506114e360808301846112c0565b9695505050505050565b6114f681611249565b82525050565b600081519050919050565b600082825260208201905092915050565b6000819050602082019050919050565b611531816110e4565b82525050565b60006115438383611528565b60208301905092915050565b6000602082019050919050565b6000611567826114fc565b6115718185611507565b935061157c83611518565b8060005b838110156115ad5781516115948882611537565b975061159f8361154f565b925050600181019050611580565b5085935050505092915050565b60006060820190506115cf60008301866114ed565b81810360208301526115e1818561155c565b90506115f06040830184611476565b949350505050565b600081905092915050565b600061160e826113ee565b61161881856115f8565b935061162881856020860161140a565b80840191505092915050565b60006116408284611603565b915081905092915050565b7f6569746865722073657269616c206e756d62657220616c726561647920696e2060008201527f757365206f722073657269616c206e756d62657220656e74657265642077617360208201527f206e756c6c000000000000000000000000000000000000000000000000000000604082015250565b60006116cd6045836113f9565b91506116d88261164b565b606082019050919050565b600060208201905081810360008301526116fc816116c0565b9050919050565b7f4e6f74207468652061646d696e00000000000000000000000000000000000000600082015250565b6000611739600d836113f9565b915061174482611703565b602082019050919050565b600060208201905081810360008301526117688161172c565b9050919050565b7f4e487b7100000000000000000000000000000000000000000000000000000000600052602260045260246000fd5b600060028204905060018216806117b657607f821691505b6020821081036117c9576117c861176f565b5b50919050565b7f65697468657220656e74727920616c726561647920657869737473206f72206e60008201527f616d6520656e746572656420776173206e756c6c000000000000000000000000602082015250565b600061182b6034836113f9565b9150611836826117cf565b604082019050919050565b6000602082019050818103600083015261185a8161181e565b9050919050565b7f50726f647563657220646f656e27742065786973740000000000000000000000600082015250565b60006118976015836113f9565b91506118a282611861565b602082019050919050565b600060208201905081810360008301526118c68161188a565b905091905056fea2646970667358221220c16d50b79d2e4b35871066682244e8cfaa305db4601618805277dc59b612f7e364736f6c634300080d0033",
  "immutableReferences": {},
  "source": "\npragma solidity ^0.8.7;\n\ncontract Provenance {\n    address admin;\n    mapping (address => Producer) producers;\n    mapping (string => Product) products;\n\n    struct Producer {\n        string name;\n        uint phoneNo;\n        string cityState;\n        string country;\n        bool certified;\n    }\n    struct Product {\n        address producer;\n        uint[] locationData; // array containing lat & long\n        uint timeStamp;\n    }\n    // constructor - runs once when contract is deployed\n    constructor() {\n        admin = msg.sender;\n    }\n    // modifier to allow only admin to execute a function\n    modifier onlyAdmin() {\n        require(msg.sender == admin, \"Not the admin\");\n        _;\n    }\n    // function for producer to add their details to database\n    function addProducer(string memory _name, uint _phoneNo, string memory _cityState, string memory _country) public  {\n        // don't overwrite existing entries and ensure name isn't null\n        require (bytes(producers[msg.sender].name).length == 0 && bytes(_name).length != 0,\n                 \"either entry already exists or name entered was null\"); \n        producers[msg.sender].name = _name;\n        producers[msg.sender].phoneNo = _phoneNo;\n        producers[msg.sender].cityState = _cityState;\n        producers[msg.sender].country = _country;\n        producers[msg.sender].certified = false; \n    }\n    // function to remove producer from database (can only be done by dmin)\n    function removeProducer(address _producer) onlyAdmin public {\n        delete producers [_producer];\n    }\n    // function to display details of producer\n    function findProducer(address _producer) public view returns (string memory, uint, string memory, string memory, bool) {\n        require(\n                bytes(producers[_producer].name).length > 0 || producers[_producer].phoneNo != 0 ||\n                bytes(producers[_producer].cityState).length != 0 || bytes(producers[_producer].country).length != 0,\n                \"Producer doen't exist\"\n                );\n        return (\n            producers[_producer].name, \n            producers[_producer].phoneNo, producers[_producer].cityState,\n            producers[_producer].country, producers[_producer].certified\n            );\n    }\n    // function to certify producer as legitimate (can only be done by admin)\n    function certifyProducer(address _producer) onlyAdmin public returns (bool success) {\n        producers [_producer] .certified = true;\n        return true;\n    }\n    // function for producer to add their product to database\n    function addProduct(string memory serialNo, uint[] memory _locationData) public {\n        // ensure no duplicate serial numbers and serial number isn't null\n        require(products[serialNo].producer == address(0) && bytes(serialNo).length != 0, \n            \"either serial number already in use or serial number entered was null\");\n        products [serialNo].producer = msg.sender;\n        products[serialNo].locationData = _locationData;\n        products[serialNo].timeStamp = block.timestamp;\n    }\n    // function to remove product from database (can only be done by admin)\n    function removeProduct(string memory serialNo) onlyAdmin public returns (bool success) {\n        delete products [serialNo];\n        return true;\n    }\n    // function to display details of product\n    function findProduct(string memory serialNo) public view returns (address, uint[] memory, uint) {\n        return (products[serialNo].producer, products [serialNo] .locationData, products[serialNo] .timeStamp);\n    }\n}\n\n\n\n\n\n\n\n\n",
  "sourcePath": "/home/toor/projets/Blockchain/Supply_chain_management/contracts/Provenance.sol",
  "compiler": {
    "name": "solc",
    "version": "0.8.13+commit.abaa5c0e.Emscripten.clang"
  },
  "schemaVersion": "3.4.6",
  "updatedAt": "2022-05-07T03:18:56.169Z",
  "networkType": "ethereum",
  "devdoc": {
    "kind": "dev",
    "methods": {},
    "version": 1
  },
  "userdoc": {
    "kind": "user",
    "methods": {},
    "version": 1
  }
}