{
  "contractName": "Provenance",
  "abi": [
    {
      "inputs": [],
      "payable": false,
      "stateMutability": "nonpayable",
      "type": "constructor"
    },
    {
      "constant": false,
      "inputs": [
        {
          "internalType": "string",
          "name": "_name",
          "type": "string"
        },
        {
          "internalType": "uint256",
          "name": "_phoneNo",
          "type": "uint256"
        },
        {
          "internalType": "string",
          "name": "_cityState",
          "type": "string"
        },
        {
          "internalType": "string",
          "name": "_country",
          "type": "string"
        }
      ],
      "name": "addProducer",
      "outputs": [],
      "payable": false,
      "stateMutability": "nonpayable",
      "type": "function"
    },
    {
      "constant": false,
      "inputs": [
        {
          "internalType": "address",
          "name": "_producer",
          "type": "address"
        }
      ],
      "name": "removeProducer",
      "outputs": [],
      "payable": false,
      "stateMutability": "nonpayable",
      "type": "function"
    },
    {
      "constant": true,
      "inputs": [
        {
          "internalType": "address",
          "name": "_producer",
          "type": "address"
        }
      ],
      "name": "findProducer",
      "outputs": [
        {
          "internalType": "string",
          "name": "",
          "type": "string"
        },
        {
          "internalType": "uint256",
          "name": "",
          "type": "uint256"
        },
        {
          "internalType": "string",
          "name": "",
          "type": "string"
        },
        {
          "internalType": "string",
          "name": "",
          "type": "string"
        },
        {
          "internalType": "bool",
          "name": "",
          "type": "bool"
        }
      ],
      "payable": false,
      "stateMutability": "view",
      "type": "function"
    },
    {
      "constant": true,
      "inputs": [],
      "name": "allProducers",
      "outputs": [
        {
          "internalType": "address[]",
          "name": "",
          "type": "address[]"
        }
      ],
      "payable": false,
      "stateMutability": "view",
      "type": "function"
    },
    {
      "constant": false,
      "inputs": [
        {
          "internalType": "address",
          "name": "_producer",
          "type": "address"
        }
      ],
      "name": "certifyProducer",
      "outputs": [
        {
          "internalType": "bool",
          "name": "success",
          "type": "bool"
        }
      ],
      "payable": false,
      "stateMutability": "nonpayable",
      "type": "function"
    },
    {
      "constant": false,
      "inputs": [
        {
          "internalType": "string",
          "name": "serialNo",
          "type": "string"
        },
        {
          "internalType": "uint256[]",
          "name": "_locationData",
          "type": "uint256[]"
        }
      ],
      "name": "addProduct",
      "outputs": [],
      "payable": false,
      "stateMutability": "nonpayable",
      "type": "function"
    },
    {
      "constant": false,
      "inputs": [
        {
          "internalType": "string",
          "name": "serialNo",
          "type": "string"
        }
      ],
      "name": "removeProduct",
      "outputs": [
        {
          "internalType": "bool",
          "name": "success",
          "type": "bool"
        }
      ],
      "payable": false,
      "stateMutability": "nonpayable",
      "type": "function"
    },
    {
      "constant": true,
      "inputs": [
        {
          "internalType": "string",
          "name": "serialNo",
          "type": "string"
        }
      ],
      "name": "findProduct",
      "outputs": [
        {
          "internalType": "address",
          "name": "",
          "type": "address"
        },
        {
          "internalType": "uint256[]",
          "name": "",
          "type": "uint256[]"
        },
        {
          "internalType": "uint256",
          "name": "",
          "type": "uint256"
        }
      ],
      "payable": false,
      "stateMutability": "view",
      "type": "function"
    },
    {
      "constant": true,
      "inputs": [],
      "name": "allProducts",
      "outputs": [
        {
          "internalType": "string[]",
          "name": "",
          "type": "string[]"
        }
      ],
      "payable": false,
      "stateMutability": "view",
      "type": "function"
    }
  ],
  "bytecode": "0x608060405234801561001057600080fd5b50336000806101000a81548173ffffffffffffffffffffffffffffffffffffffff021916908373ffffffffffffffffffffffffffffffffffffffff16021790555061205b806100606000396000f3fe608060405234801561001057600080fd5b50600436106100935760003560e01c80639129524111610066578063912952411461011e5780639726dd191461013c578063a5bfd7c91461016c578063c7a69e0b14610188578063e2d5d322146101bc57610093565b80630f10ee0b1461009857806332ff5bb4146100b45780633f185b6c146100d257806353efc828146100ee575b600080fd5b6100b260048036036100ad9190810190611693565b6101ee565b005b6100bc6103ab565b6040516100c99190611c79565b60405180910390f35b6100ec60048036036100e79190810190611629565b610439565b005b61010860048036036101039190810190611629565b6106dc565b6040516101159190611cbd565b60405180910390f35b6101266107d0565b6040516101339190611c9b565b60405180910390f35b61015660048036036101519190810190611652565b6108b9565b6040516101639190611cbd565b60405180910390f35b610186600480360361018191908101906116ff565b610aaf565b005b6101a2600480360361019d9190810190611629565b610d69565b6040516101b3959493929190611cd8565b60405180910390f35b6101d660048036036101d19190810190611652565b61125c565b6040516101e593929190611c3b565b60405180910390f35b600073ffffffffffffffffffffffffffffffffffffffff166002836040516102169190611c24565b908152602001604051809103902060000160009054906101000a900473ffffffffffffffffffffffffffffffffffffffff1673ffffffffffffffffffffffffffffffffffffffff1614801561026d57506000825114155b6102ac576040517f08c379a00000000000000000000000000000000000000000000000000000000081526004016102a390611da0565b60405180910390fd5b336002836040516102bd9190611c24565b908152602001604051809103902060000160006101000a81548173ffffffffffffffffffffffffffffffffffffffff021916908373ffffffffffffffffffffffffffffffffffffffff1602179055508060028360405161031d9190611c24565b90815260200160405180910390206001019080519060200190610341929190611346565b50426002836040516103539190611c24565b90815260200160405180910390206002018190555060048290806001815401808255809150509060018203906000526020600020016000909192909190915090805190602001906103a5929190611393565b50505050565b6060600380548060200260200160405190810160405280929190818152602001828054801561042f57602002820191906000526020600020905b8160009054906101000a900473ffffffffffffffffffffffffffffffffffffffff1673ffffffffffffffffffffffffffffffffffffffff16815260200190600101908083116103e5575b5050505050905090565b6000809054906101000a900473ffffffffffffffffffffffffffffffffffffffff1673ffffffffffffffffffffffffffffffffffffffff163373ffffffffffffffffffffffffffffffffffffffff16146104c8576040517f08c379a00000000000000000000000000000000000000000000000000000000081526004016104bf90611d80565b60405180910390fd5b600160008273ffffffffffffffffffffffffffffffffffffffff1673ffffffffffffffffffffffffffffffffffffffff168152602001908152602001600020600080820160006105189190611413565b60018201600090556002820160006105309190611413565b6003820160006105409190611413565b6004820160006101000a81549060ff0219169055505060008090505b6003805490508110156106d8578173ffffffffffffffffffffffffffffffffffffffff166003828154811061058d57fe5b9060005260206000200160009054906101000a900473ffffffffffffffffffffffffffffffffffffffff1673ffffffffffffffffffffffffffffffffffffffff1614156106cb5760008190505b60016003805490500381101561068757600360018201815481106105fa57fe5b9060005260206000200160009054906101000a900473ffffffffffffffffffffffffffffffffffffffff166003828154811061063257fe5b9060005260206000200160006101000a81548173ffffffffffffffffffffffffffffffffffffffff021916908373ffffffffffffffffffffffffffffffffffffffff16021790555080806001019150506105da565b5060036001600380549050038154811061069d57fe5b9060005260206000200160006101000a81549073ffffffffffffffffffffffffffffffffffffffff02191690555b808060010191505061055c565b5050565b60008060009054906101000a900473ffffffffffffffffffffffffffffffffffffffff1673ffffffffffffffffffffffffffffffffffffffff163373ffffffffffffffffffffffffffffffffffffffff161461076d576040517f08c379a000000000000000000000000000000000000000000000000000000000815260040161076490611d80565b60405180910390fd5b60018060008473ffffffffffffffffffffffffffffffffffffffff1673ffffffffffffffffffffffffffffffffffffffff16815260200190815260200160002060040160006101000a81548160ff02191690831515021790555060019050919050565b60606004805480602002602001604051908101604052809291908181526020016000905b828210156108b0578382906000526020600020018054600181600116156101000203166002900480601f01602080910402602001604051908101604052809291908181526020018280546001816001161561010002031660029004801561089c5780601f106108715761010080835404028352916020019161089c565b820191906000526020600020905b81548152906001019060200180831161087f57829003601f168201915b5050505050815260200190600101906107f4565b50505050905090565b60008060009054906101000a900473ffffffffffffffffffffffffffffffffffffffff1673ffffffffffffffffffffffffffffffffffffffff163373ffffffffffffffffffffffffffffffffffffffff161461094a576040517f08c379a000000000000000000000000000000000000000000000000000000000815260040161094190611d80565b60405180910390fd5b60028260405161095a9190611c24565b9081526020016040518091039020600080820160006101000a81549073ffffffffffffffffffffffffffffffffffffffff02191690556001820160006109a0919061145b565b6002820160009055505060008090505b600480549050811015610aa5578280519060200120600482815481106109d257fe5b906000526020600020016040516109e99190611c0d565b60405180910390201415610a985760008190505b600160048054905003811015610a6b5760046001820181548110610a1d57fe5b9060005260206000200160048281548110610a3457fe5b906000526020600020019080546001816001161561010002031660029004610a5d92919061147c565b5080806001019150506109fd565b50600460016004805490500381548110610a8157fe5b906000526020600020016000610a979190611413565b5b80806001019150506109b0565b5060019050919050565b6000600160003373ffffffffffffffffffffffffffffffffffffffff1673ffffffffffffffffffffffffffffffffffffffff168152602001908152602001600020600001805460018160011615610100020316600290049050148015610b1757506000845114155b610b56576040517f08c379a0000000000000000000000000000000000000000000000000000000008152600401610b4d90611d60565b60405180910390fd5b83600160003373ffffffffffffffffffffffffffffffffffffffff1673ffffffffffffffffffffffffffffffffffffffff1681526020019081526020016000206000019080519060200190610bac929190611393565b5082600160003373ffffffffffffffffffffffffffffffffffffffff1673ffffffffffffffffffffffffffffffffffffffff1681526020019081526020016000206001018190555081600160003373ffffffffffffffffffffffffffffffffffffffff1673ffffffffffffffffffffffffffffffffffffffff1681526020019081526020016000206002019080519060200190610c4a929190611393565b5080600160003373ffffffffffffffffffffffffffffffffffffffff1673ffffffffffffffffffffffffffffffffffffffff1681526020019081526020016000206003019080519060200190610ca1929190611393565b506000600160003373ffffffffffffffffffffffffffffffffffffffff1673ffffffffffffffffffffffffffffffffffffffff16815260200190815260200160002060040160006101000a81548160ff02191690831515021790555060033390806001815401808255809150509060018203906000526020600020016000909192909190916101000a81548173ffffffffffffffffffffffffffffffffffffffff021916908373ffffffffffffffffffffffffffffffffffffffff1602179055505050505050565b60606000606080600080600160008873ffffffffffffffffffffffffffffffffffffffff1673ffffffffffffffffffffffffffffffffffffffff1681526020019081526020016000206000018054600181600116156101000203166002900490501180610e1957506000600160008873ffffffffffffffffffffffffffffffffffffffff1673ffffffffffffffffffffffffffffffffffffffff1681526020019081526020016000206001015414155b80610e7b57506000600160008873ffffffffffffffffffffffffffffffffffffffff1673ffffffffffffffffffffffffffffffffffffffff16815260200190815260200160002060020180546001816001161561010002031660029004905014155b80610edd57506000600160008873ffffffffffffffffffffffffffffffffffffffff1673ffffffffffffffffffffffffffffffffffffffff16815260200190815260200160002060030180546001816001161561010002031660029004905014155b610f1c576040517f08c379a0000000000000000000000000000000000000000000000000000000008152600401610f1390611d40565b60405180910390fd5b600160008773ffffffffffffffffffffffffffffffffffffffff1673ffffffffffffffffffffffffffffffffffffffff168152602001908152602001600020600001600160008873ffffffffffffffffffffffffffffffffffffffff1673ffffffffffffffffffffffffffffffffffffffff16815260200190815260200160002060010154600160008973ffffffffffffffffffffffffffffffffffffffff1673ffffffffffffffffffffffffffffffffffffffff168152602001908152602001600020600201600160008a73ffffffffffffffffffffffffffffffffffffffff1673ffffffffffffffffffffffffffffffffffffffff168152602001908152602001600020600301600160008b73ffffffffffffffffffffffffffffffffffffffff1673ffffffffffffffffffffffffffffffffffffffff16815260200190815260200160002060040160009054906101000a900460ff16848054600181600116156101000203166002900480601f01602080910402602001604051908101604052809291908181526020018280546001816001161561010002031660029004801561110a5780601f106110df5761010080835404028352916020019161110a565b820191906000526020600020905b8154815290600101906020018083116110ed57829003601f168201915b50505050509450828054600181600116156101000203166002900480601f0160208091040260200160405190810160405280929190818152602001828054600181600116156101000203166002900480156111a65780601f1061117b576101008083540402835291602001916111a6565b820191906000526020600020905b81548152906001019060200180831161118957829003601f168201915b50505050509250818054600181600116156101000203166002900480601f0160208091040260200160405190810160405280929190818152602001828054600181600116156101000203166002900480156112425780601f1061121757610100808354040283529160200191611242565b820191906000526020600020905b81548152906001019060200180831161122557829003601f168201915b505050505091509450945094509450945091939590929450565b6000606060006002846040516112729190611c24565b908152602001604051809103902060000160009054906101000a900473ffffffffffffffffffffffffffffffffffffffff166002856040516112b49190611c24565b90815260200160405180910390206001016002866040516112d59190611c24565b9081526020016040518091039020600201548180548060200260200160405190810160405280929190818152602001828054801561133257602002820191906000526020600020905b81548152602001906001019080831161131e575b505050505091509250925092509193909250565b828054828255906000526020600020908101928215611382579160200282015b82811115611381578251825591602001919060010190611366565b5b50905061138f9190611503565b5090565b828054600181600116156101000203166002900490600052602060002090601f016020900481019282601f106113d457805160ff1916838001178555611402565b82800160010185558215611402579182015b828111156114015782518255916020019190600101906113e6565b5b50905061140f9190611503565b5090565b50805460018160011615610100020316600290046000825580601f106114395750611458565b601f0160209004906000526020600020908101906114579190611503565b5b50565b50805460008255906000526020600020908101906114799190611503565b50565b828054600181600116156101000203166002900490600052602060002090601f016020900481019282601f106114b557805485556114f2565b828001600101855582156114f257600052602060002091601f016020900482015b828111156114f15782548255916001019190600101906114d6565b5b5090506114ff9190611503565b5090565b61152591905b80821115611521576000816000905550600101611509565b5090565b90565b60008135905061153781611fea565b92915050565b600082601f83011261154e57600080fd5b813561156161155c82611ded565b611dc0565b9150818183526020840193506020810190508385602084028201111561158657600080fd5b60005b838110156115b6578161159c8882611614565b845260208401935060208301925050600181019050611589565b5050505092915050565b600082601f8301126115d157600080fd5b81356115e46115df82611e15565b611dc0565b9150808252602083016020830185838301111561160057600080fd5b61160b838284611f97565b50505092915050565b60008135905061162381612001565b92915050565b60006020828403121561163b57600080fd5b600061164984828501611528565b91505092915050565b60006020828403121561166457600080fd5b600082013567ffffffffffffffff81111561167e57600080fd5b61168a848285016115c0565b91505092915050565b600080604083850312156116a657600080fd5b600083013567ffffffffffffffff8111156116c057600080fd5b6116cc858286016115c0565b925050602083013567ffffffffffffffff8111156116e957600080fd5b6116f58582860161153d565b9150509250929050565b6000806000806080858703121561171557600080fd5b600085013567ffffffffffffffff81111561172f57600080fd5b61173b878288016115c0565b945050602061174c87828801611614565b935050604085013567ffffffffffffffff81111561176957600080fd5b611775878288016115c0565b925050606085013567ffffffffffffffff81111561179257600080fd5b61179e878288016115c0565b91505092959194509250565b60006117b683836117ee565b60208301905092915050565b60006117ce8383611a44565b905092915050565b60006117e28383611bef565b60208301905092915050565b6117f781611f4f565b82525050565b61180681611f4f565b82525050565b600061181782611e86565b6118218185611ee4565b935061182c83611e41565b8060005b8381101561185d57815161184488826117aa565b975061184f83611ebd565b925050600181019050611830565b5085935050505092915050565b600061187582611e91565b61187f8185611ef5565b93508360208202850161189185611e51565b8060005b858110156118cd57848403895281516118ae85826117c2565b94506118b983611eca565b925060208a01995050600181019050611895565b50829750879550505050505092915050565b60006118ea82611e9c565b6118f48185611f06565b93506118ff83611e61565b8060005b8381101561193057815161191788826117d6565b975061192283611ed7565b925050600181019050611903565b5085935050505092915050565b61194681611f61565b82525050565b600081546001811660008114611969576001811461198e576119d2565b607f600283041661197a8187611f17565b955060ff19831686528086019350506119d2565b6002820461199c8187611f17565b95506119a785611e71565b60005b828110156119c9578154818901526001820191506020810190506119aa565b82880195505050505b505092915050565b60006119e582611eb2565b6119ef8185611f33565b93506119ff818560208601611fa6565b611a0881611fd9565b840191505092915050565b6000611a1e82611eb2565b611a288185611f44565b9350611a38818560208601611fa6565b80840191505092915050565b6000611a4f82611ea7565b611a598185611f22565b9350611a69818560208601611fa6565b611a7281611fd9565b840191505092915050565b6000611a8a601583611f33565b91507f50726f647563657220646f656e277420657869737400000000000000000000006000830152602082019050919050565b6000611aca603483611f33565b91507f65697468657220656e74727920616c726561647920657869737473206f72206e60008301527f616d6520656e746572656420776173206e756c6c0000000000000000000000006020830152604082019050919050565b6000611b30600d83611f33565b91507f4e6f74207468652061646d696e000000000000000000000000000000000000006000830152602082019050919050565b6000611b70604583611f33565b91507f6569746865722073657269616c206e756d62657220616c726561647920696e2060008301527f757365206f722073657269616c206e756d62657220656e74657265642077617360208301527f206e756c6c0000000000000000000000000000000000000000000000000000006040830152606082019050919050565b611bf881611f8d565b82525050565b611c0781611f8d565b82525050565b6000611c19828461194c565b915081905092915050565b6000611c308284611a13565b915081905092915050565b6000606082019050611c5060008301866117fd565b8181036020830152611c6281856118df565b9050611c716040830184611bfe565b949350505050565b60006020820190508181036000830152611c93818461180c565b905092915050565b60006020820190508181036000830152611cb5818461186a565b905092915050565b6000602082019050611cd2600083018461193d565b92915050565b600060a0820190508181036000830152611cf281886119da565b9050611d016020830187611bfe565b8181036040830152611d1381866119da565b90508181036060830152611d2781856119da565b9050611d36608083018461193d565b9695505050505050565b60006020820190508181036000830152611d5981611a7d565b9050919050565b60006020820190508181036000830152611d7981611abd565b9050919050565b60006020820190508181036000830152611d9981611b23565b9050919050565b60006020820190508181036000830152611db981611b63565b9050919050565b6000604051905081810181811067ffffffffffffffff82111715611de357600080fd5b8060405250919050565b600067ffffffffffffffff821115611e0457600080fd5b602082029050602081019050919050565b600067ffffffffffffffff821115611e2c57600080fd5b601f19601f8301169050602081019050919050565b6000819050602082019050919050565b6000819050602082019050919050565b6000819050602082019050919050565b60008190508160005260206000209050919050565b600081519050919050565b600081519050919050565b600081519050919050565b600081519050919050565b600081519050919050565b6000602082019050919050565b6000602082019050919050565b6000602082019050919050565b600082825260208201905092915050565b600082825260208201905092915050565b600082825260208201905092915050565b600081905092915050565b600082825260208201905092915050565b600082825260208201905092915050565b600081905092915050565b6000611f5a82611f6d565b9050919050565b60008115159050919050565b600073ffffffffffffffffffffffffffffffffffffffff82169050919050565b6000819050919050565b82818337600083830152505050565b60005b83811015611fc4578082015181840152602081019050611fa9565b83811115611fd3576000848401525b50505050565b6000601f19601f8301169050919050565b611ff381611f4f565b8114611ffe57600080fd5b50565b61200a81611f8d565b811461201557600080fd5b5056fea365627a7a723158200cc3fcc408aebb0403799897e1b3650c513831cd68ee916aaef57d20dc27d6906c6578706572696d656e74616cf564736f6c63430005100040",
  "source": "\npragma solidity >=0.4.22 <0.9.0;\npragma experimental ABIEncoderV2;\n\ncontract Provenance {\n    address admin;\n    mapping (address => Producer) producers;\n    mapping (string => Product) products;\n    address[] producersByAddress; // Array of all producers' acconts\n    string[] productsBySerialNo;\n\n    struct Producer {\n        string name;\n        uint phoneNo;\n        string cityState;\n        string country;\n        bool certified;\n    }\n    struct Product {\n        address producer;\n        uint[] locationData; // array containing lat & long\n        uint timeStamp;\n    }\n    // constructor - runs once when contract is deployed\n    constructor() public {\n        admin = msg.sender;\n    }\n    // modifier to allow only admin to execute a function\n    modifier onlyAdmin() {\n        require(msg.sender == admin, \"Not the admin\");\n        _;\n    }\n    // function for producer to add their details to database\n    function addProducer(string memory _name, uint _phoneNo, string memory _cityState, string memory _country) public  {\n        // don't overwrite existing entries and ensure name isn't null\n        require (bytes(producers[msg.sender].name).length == 0 && bytes(_name).length != 0,\n                 \"either entry already exists or name entered was null\"); \n        producers[msg.sender].name = _name;\n        producers[msg.sender].phoneNo = _phoneNo;\n        producers[msg.sender].cityState = _cityState;\n        producers[msg.sender].country = _country;\n        producers[msg.sender].certified = false; \n        producersByAddress.push(msg.sender);\n    }\n    // function to remove producer from database (can only be done by dmin)\n    function removeProducer(address _producer) onlyAdmin public {\n        delete producers [_producer];\n        // dlete entry from array and shorten array\n        for (uint i = 0; i < producersByAddress.length; i++) {\n            if (producersByAddress[i] == _producer) {\n                for (uint index = i; index < producersByAddress.length - 1; index++) {\n                    producersByAddress[index] =\n                    producersByAddress[index + 1];\n                }\n                delete producersByAddress[producersByAddress.length - 1];\n\n            }\n        }\n    }\n    // function to display details of producer\n    function findProducer(address _producer) public view returns (string memory, uint, string memory, string memory, bool) {\n        require(\n                bytes(producers[_producer].name).length > 0 || producers[_producer].phoneNo != 0 ||\n                bytes(producers[_producer].cityState).length != 0 || bytes(producers[_producer].country).length != 0,\n                \"Producer doen't exist\"\n                );\n        return (\n            producers[_producer].name, \n            producers[_producer].phoneNo, producers[_producer].cityState,\n            producers[_producer].country, producers[_producer].certified\n            );\n    }\n    // function to display all producers' accounts in database\n    function allProducers() public view returns (address[] memory) {\n        return producersByAddress;\n    }\n    // function to certify producer as legitimate (can only be done by admin)\n    function certifyProducer(address _producer) onlyAdmin public returns (bool success) {\n        producers [_producer] .certified = true;\n        return true;\n    }\n    // function for producer to add their product to database\n    function addProduct(string memory serialNo, uint[] memory _locationData) public {\n        // ensure no duplicate serial numbers and serial number isn't null\n        require(products[serialNo].producer == address(0) && bytes(serialNo).length != 0, \n            \"either serial number already in use or serial number entered was null\");\n        products [serialNo].producer = msg.sender;\n        products[serialNo].locationData = _locationData;\n        products[serialNo].timeStamp = block.timestamp;\n        productsBySerialNo.push(serialNo);\n    }\n    // function to remove product from database (can only be done by admin)\n    function removeProduct(string memory serialNo) onlyAdmin public returns (bool success) {\n        delete products [serialNo];\n        // delete entry from array and shorten array\n        for (uint i = 0; i < productsBySerialNo.length; i++) {\n            //keccak256(portcheck) == keccak256(\"signed\")\n            if (keccak256(bytes(productsBySerialNo[i])) == keccak256(bytes(serialNo))) {\n                for (uint index = i; index < productsBySerialNo.length - 1; index++) {\n                    productsBySerialNo[index] =\n                    productsBySerialNo[index + 1];\n                }\n                delete productsBySerialNo[productsBySerialNo.length - 1];\n                \n            }\n        }\n        return true;\n    }\n    // function to display details of product\n    function findProduct(string memory serialNo) public view returns (address, uint[] memory, uint) {\n        return (products[serialNo].producer, products [serialNo] .locationData, products[serialNo] .timeStamp);\n    }\n    // function to displays all products\n    function allProducts() public view returns (string[] memory) {\n        return productsBySerialNo;\n    }\n}\n\n\n\n\n\n\n\n\n",
  "sourcePath": "/home/toor/projets/Blockchain/Supply_chain_management/contracts/Provenance.sol",
  "compiler": {
    "name": "solc",
    "version": "0.5.16+commit.9c3226ce.Emscripten.clang"
  },
  "schemaVersion": "3.4.6",
  "updatedAt": "2022-06-24T23:38:04.995Z",
  "networkType": "ethereum",
  "devdoc": {
    "methods": {}
  },
  "userdoc": {
    "methods": {}
  }
}