{
  "contractName": "Reputation",
  "abi": [
    {
      "inputs": [],
      "stateMutability": "nonpayable",
      "type": "constructor"
    },
    {
      "inputs": [],
      "name": "track",
      "outputs": [
        {
          "internalType": "contract Tracking",
          "name": "",
          "type": "address"
        }
      ],
      "stateMutability": "view",
      "type": "function",
      "constant": true
    },
    {
      "inputs": [
        {
          "internalType": "string",
          "name": "_name",
          "type": "string"
        },
        {
          "internalType": "uint256",
          "name": "_phoneNo",
          "type": "uint256"
        },
        {
          "internalType": "string",
          "name": "_cityState",
          "type": "string"
        },
        {
          "internalType": "string",
          "name": "_country",
          "type": "string"
        },
        {
          "internalType": "string",
          "name": "_goodsType",
          "type": "string"
        }
      ],
      "name": "addSupplier",
      "outputs": [
        {
          "internalType": "bool",
          "name": "success",
          "type": "bool"
        }
      ],
      "stateMutability": "nonpayable",
      "type": "function"
    },
    {
      "inputs": [
        {
          "internalType": "address",
          "name": "_supplier",
          "type": "address"
        }
      ],
      "name": "removeSupplier",
      "outputs": [
        {
          "internalType": "bool",
          "name": "success",
          "type": "bool"
        }
      ],
      "stateMutability": "nonpayable",
      "type": "function"
    },
    {
      "inputs": [
        {
          "internalType": "address",
          "name": "_supplier",
          "type": "address"
        }
      ],
      "name": "findSupplier",
      "outputs": [
        {
          "internalType": "string",
          "name": "",
          "type": "string"
        },
        {
          "internalType": "uint256",
          "name": "",
          "type": "uint256"
        },
        {
          "internalType": "string",
          "name": "",
          "type": "string"
        },
        {
          "internalType": "string",
          "name": "",
          "type": "string"
        },
        {
          "internalType": "string",
          "name": "",
          "type": "string"
        },
        {
          "internalType": "uint256",
          "name": "",
          "type": "uint256"
        }
      ],
      "stateMutability": "view",
      "type": "function",
      "constant": true
    },
    {
      "inputs": [],
      "name": "allSuppliers",
      "outputs": [
        {
          "internalType": "address[]",
          "name": "",
          "type": "address[]"
        }
      ],
      "stateMutability": "view",
      "type": "function",
      "constant": true
    },
    {
      "inputs": [
        {
          "internalType": "string",
          "name": "_goodsType",
          "type": "string"
        }
      ],
      "name": "filterByGoodsType",
      "outputs": [
        {
          "internalType": "address[]",
          "name": "",
          "type": "address[]"
        }
      ],
      "stateMutability": "view",
      "type": "function",
      "constant": true
    },
    {
      "inputs": [
        {
          "internalType": "uint256",
          "name": "_reputation",
          "type": "uint256"
        }
      ],
      "name": "filterByReputation",
      "outputs": [
        {
          "internalType": "address[]",
          "name": "",
          "type": "address[]"
        }
      ],
      "stateMutability": "view",
      "type": "function",
      "constant": true
    },
    {
      "inputs": [
        {
          "internalType": "address",
          "name": "_supplier",
          "type": "address"
        }
      ],
      "name": "checkReputation",
      "outputs": [
        {
          "internalType": "uint256",
          "name": "",
          "type": "uint256"
        }
      ],
      "stateMutability": "view",
      "type": "function",
      "constant": true
    },
    {
      "inputs": [],
      "name": "updateReputations",
      "outputs": [
        {
          "internalType": "bool",
          "name": "success",
          "type": "bool"
        }
      ],
      "stateMutability": "nonpayable",
      "type": "function"
    }
  ],
  "bytecode": "0x608060405273d9145cce52d386f254917e481eb44e9943f391386000806101000a81548173ffffffffffffffffffffffffffffffffffffffff021916908373ffffffffffffffffffffffffffffffffffffffff16021790555034801561006457600080fd5b5033600160006101000a81548173ffffffffffffffffffffffffffffffffffffffff021916908373ffffffffffffffffffffffffffffffffffffffff160217905550611e2f806100b56000396000f3fe608060405234801561001057600080fd5b50600436106100935760003560e01c80639d0ac07b116100665780639d0ac07b146101465780639f65cf0514610164578063b36c37df14610182578063d69375c5146101b7578063f213af38146101e757610093565b8063014ab313146100985780630f5f817a146100c85780632ab9226d146100f857806340b035a614610116575b600080fd5b6100b260048036038101906100ad9190611480565b610217565b6040516100bf91906114c6565b60405180910390f35b6100e260048036038101906100dd9190611480565b6102bb565b6040516100ef91906114fc565b60405180910390f35b6101006105aa565b60405161010d91906115d5565b60405180910390f35b610130600480360381019061012b9190611769565b610638565b60405161013d91906114fc565b60405180910390f35b61014e6109cb565b60405161015b91906118b3565b60405180910390f35b61016c6109ef565b60405161017991906114fc565b60405180910390f35b61019c60048036038101906101979190611480565b610c08565b6040516101ae96959493929190611956565b60405180910390f35b6101d160048036038101906101cc91906119d3565b610fe6565b6040516101de91906115d5565b60405180910390f35b61020160048036038101906101fc9190611a00565b61117b565b60405161020e91906115d5565b60405180910390f35b60008060009054906101000a900473ffffffffffffffffffffffffffffffffffffffff1673ffffffffffffffffffffffffffffffffffffffff166327c06fd5836040518263ffffffff1660e01b81526004016102739190611a58565b602060405180830381865afa158015610290573d6000803e3d6000fd5b505050506040513d601f19601f820116820180604052508101906102b49190611a88565b9050919050565b6000600160009054906101000a900473ffffffffffffffffffffffffffffffffffffffff1673ffffffffffffffffffffffffffffffffffffffff163373ffffffffffffffffffffffffffffffffffffffff161461034d576040517f08c379a000000000000000000000000000000000000000000000000000000000815260040161034490611b01565b60405180910390fd5b600260008373ffffffffffffffffffffffffffffffffffffffff1673ffffffffffffffffffffffffffffffffffffffff1681526020019081526020016000206000808201600061039d919061132b565b60018201600090556002820160006103b5919061132b565b6003820160006103c5919061132b565b6004820160006103d5919061132b565b6005820160009055505060005b6003805490508110156105a0578273ffffffffffffffffffffffffffffffffffffffff166003828154811061041a57610419611b21565b5b9060005260206000200160009054906101000a900473ffffffffffffffffffffffffffffffffffffffff1673ffffffffffffffffffffffffffffffffffffffff160361058d5760008190505b60016003805490506104789190611b7f565b81101561053957600360018261048e9190611bb3565b8154811061049f5761049e611b21565b5b9060005260206000200160009054906101000a900473ffffffffffffffffffffffffffffffffffffffff16600382815481106104de576104dd611b21565b5b9060005260206000200160006101000a81548173ffffffffffffffffffffffffffffffffffffffff021916908373ffffffffffffffffffffffffffffffffffffffff160217905550808061053190611c09565b915050610466565b506003600160038054905061054e9190611b7f565b8154811061055f5761055e611b21565b5b9060005260206000200160006101000a81549073ffffffffffffffffffffffffffffffffffffffff02191690555b808061059890611c09565b9150506103e2565b5060019050919050565b6060600380548060200260200160405190810160405280929190818152602001828054801561062e57602002820191906000526020600020905b8160009054906101000a900473ffffffffffffffffffffffffffffffffffffffff1673ffffffffffffffffffffffffffffffffffffffff16815260200190600101908083116105e4575b5050505050905090565b600080600260003373ffffffffffffffffffffffffffffffffffffffff1673ffffffffffffffffffffffffffffffffffffffff168152602001908152602001600020600001805461068890611c80565b905014801561069957506000865114155b6106d8576040517f08c379a00000000000000000000000000000000000000000000000000000000081526004016106cf90611d23565b60405180910390fd5b85600260003373ffffffffffffffffffffffffffffffffffffffff1673ffffffffffffffffffffffffffffffffffffffff168152602001908152602001600020600001908051906020019061072e92919061136b565b5084600260003373ffffffffffffffffffffffffffffffffffffffff1673ffffffffffffffffffffffffffffffffffffffff1681526020019081526020016000206001018190555083600260003373ffffffffffffffffffffffffffffffffffffffff1673ffffffffffffffffffffffffffffffffffffffff16815260200190815260200160002060020190805190602001906107cc92919061136b565b5082600260003373ffffffffffffffffffffffffffffffffffffffff1673ffffffffffffffffffffffffffffffffffffffff168152602001908152602001600020600301908051906020019061082392919061136b565b5081600260003373ffffffffffffffffffffffffffffffffffffffff1673ffffffffffffffffffffffffffffffffffffffff168152602001908152602001600020600401908051906020019061087a92919061136b565b5060008054906101000a900473ffffffffffffffffffffffffffffffffffffffff1673ffffffffffffffffffffffffffffffffffffffff166327c06fd5336040518263ffffffff1660e01b81526004016108d49190611a58565b602060405180830381865afa1580156108f1573d6000803e3d6000fd5b505050506040513d601f19601f820116820180604052508101906109159190611a88565b600260003373ffffffffffffffffffffffffffffffffffffffff1673ffffffffffffffffffffffffffffffffffffffff168152602001908152602001600020600501819055506003339080600181540180825580915050600190039060005260206000200160009091909190916101000a81548173ffffffffffffffffffffffffffffffffffffffff021916908373ffffffffffffffffffffffffffffffffffffffff1602179055506001905095945050505050565b60008054906101000a900473ffffffffffffffffffffffffffffffffffffffff1681565b6000600160009054906101000a900473ffffffffffffffffffffffffffffffffffffffff1673ffffffffffffffffffffffffffffffffffffffff163373ffffffffffffffffffffffffffffffffffffffff1614610a81576040517f08c379a0000000000000000000000000000000000000000000000000000000008152600401610a7890611b01565b60405180910390fd5b60005b600380549050811015610c005760008054906101000a900473ffffffffffffffffffffffffffffffffffffffff1673ffffffffffffffffffffffffffffffffffffffff166327c06fd560038381548110610ae157610ae0611b21565b5b9060005260206000200160009054906101000a900473ffffffffffffffffffffffffffffffffffffffff166040518263ffffffff1660e01b8152600401610b289190611a58565b602060405180830381865afa158015610b45573d6000803e3d6000fd5b505050506040513d601f19601f82011682018060405250810190610b699190611a88565b6002600060038481548110610b8157610b80611b21565b5b9060005260206000200160009054906101000a900473ffffffffffffffffffffffffffffffffffffffff1673ffffffffffffffffffffffffffffffffffffffff1673ffffffffffffffffffffffffffffffffffffffff168152602001908152602001600020600501819055508080610bf890611c09565b915050610a84565b506001905090565b6060600060608060606000600260008873ffffffffffffffffffffffffffffffffffffffff1673ffffffffffffffffffffffffffffffffffffffff168152602001908152602001600020600001600260008973ffffffffffffffffffffffffffffffffffffffff1673ffffffffffffffffffffffffffffffffffffffff16815260200190815260200160002060010154600260008a73ffffffffffffffffffffffffffffffffffffffff1673ffffffffffffffffffffffffffffffffffffffff168152602001908152602001600020600201600260008b73ffffffffffffffffffffffffffffffffffffffff1673ffffffffffffffffffffffffffffffffffffffff168152602001908152602001600020600301600260008c73ffffffffffffffffffffffffffffffffffffffff1673ffffffffffffffffffffffffffffffffffffffff168152602001908152602001600020600401600260008d73ffffffffffffffffffffffffffffffffffffffff1673ffffffffffffffffffffffffffffffffffffffff16815260200190815260200160002060050154858054610dad90611c80565b80601f0160208091040260200160405190810160405280929190818152602001828054610dd990611c80565b8015610e265780601f10610dfb57610100808354040283529160200191610e26565b820191906000526020600020905b815481529060010190602001808311610e0957829003601f168201915b50505050509550838054610e3990611c80565b80601f0160208091040260200160405190810160405280929190818152602001828054610e6590611c80565b8015610eb25780601f10610e8757610100808354040283529160200191610eb2565b820191906000526020600020905b815481529060010190602001808311610e9557829003601f168201915b50505050509350828054610ec590611c80565b80601f0160208091040260200160405190810160405280929190818152602001828054610ef190611c80565b8015610f3e5780601f10610f1357610100808354040283529160200191610f3e565b820191906000526020600020905b815481529060010190602001808311610f2157829003601f168201915b50505050509250818054610f5190611c80565b80601f0160208091040260200160405190810160405280929190818152602001828054610f7d90611c80565b8015610fca5780601f10610f9f57610100808354040283529160200191610fca565b820191906000526020600020905b815481529060010190602001808311610fad57829003601f168201915b5050505050915095509550955095509550955091939550919395565b6060600060038054905067ffffffffffffffff81111561100957611008611612565b5b6040519080825280602002602001820160405280156110375781602001602082028036833780820191505090505b50905060005b6003805490508110156111715783600260006003848154811061106357611062611b21565b5b9060005260206000200160009054906101000a900473ffffffffffffffffffffffffffffffffffffffff1673ffffffffffffffffffffffffffffffffffffffff1673ffffffffffffffffffffffffffffffffffffffff168152602001908152602001600020600501541061115e57600381815481106110e5576110e4611b21565b5b9060005260206000200160009054906101000a900473ffffffffffffffffffffffffffffffffffffffff1682828151811061112357611122611b21565b5b602002602001019073ffffffffffffffffffffffffffffffffffffffff16908173ffffffffffffffffffffffffffffffffffffffff16815250505b808061116990611c09565b91505061103d565b5080915050919050565b6060600060038054905067ffffffffffffffff81111561119e5761119d611612565b5b6040519080825280602002602001820160405280156111cc5781602001602082028036833780820191505090505b50905060005b60038054905081101561132157838051906020012060026000600384815481106111ff576111fe611b21565b5b9060005260206000200160009054906101000a900473ffffffffffffffffffffffffffffffffffffffff1673ffffffffffffffffffffffffffffffffffffffff1673ffffffffffffffffffffffffffffffffffffffff1681526020019081526020016000206004016040516112749190611de2565b60405180910390200361130e576003818154811061129557611294611b21565b5b9060005260206000200160009054906101000a900473ffffffffffffffffffffffffffffffffffffffff168282815181106112d3576112d2611b21565b5b602002602001019073ffffffffffffffffffffffffffffffffffffffff16908173ffffffffffffffffffffffffffffffffffffffff16815250505b808061131990611c09565b9150506111d2565b5080915050919050565b50805461133790611c80565b6000825580601f106113495750611368565b601f01602090049060005260206000209081019061136791906113f1565b5b50565b82805461137790611c80565b90600052602060002090601f01602090048101928261139957600085556113e0565b82601f106113b257805160ff19168380011785556113e0565b828001600101855582156113e0579182015b828111156113df5782518255916020019190600101906113c4565b5b5090506113ed91906113f1565b5090565b5b8082111561140a5760008160009055506001016113f2565b5090565b6000604051905090565b600080fd5b600080fd5b600073ffffffffffffffffffffffffffffffffffffffff82169050919050565b600061144d82611422565b9050919050565b61145d81611442565b811461146857600080fd5b50565b60008135905061147a81611454565b92915050565b60006020828403121561149657611495611418565b5b60006114a48482850161146b565b91505092915050565b6000819050919050565b6114c0816114ad565b82525050565b60006020820190506114db60008301846114b7565b92915050565b60008115159050919050565b6114f6816114e1565b82525050565b600060208201905061151160008301846114ed565b92915050565b600081519050919050565b600082825260208201905092915050565b6000819050602082019050919050565b61154c81611442565b82525050565b600061155e8383611543565b60208301905092915050565b6000602082019050919050565b600061158282611517565b61158c8185611522565b935061159783611533565b8060005b838110156115c85781516115af8882611552565b97506115ba8361156a565b92505060018101905061159b565b5085935050505092915050565b600060208201905081810360008301526115ef8184611577565b905092915050565b600080fd5b600080fd5b6000601f19601f8301169050919050565b7f4e487b7100000000000000000000000000000000000000000000000000000000600052604160045260246000fd5b61164a82611601565b810181811067ffffffffffffffff8211171561166957611668611612565b5b80604052505050565b600061167c61140e565b90506116888282611641565b919050565b600067ffffffffffffffff8211156116a8576116a7611612565b5b6116b182611601565b9050602081019050919050565b82818337600083830152505050565b60006116e06116db8461168d565b611672565b9050828152602081018484840111156116fc576116fb6115fc565b5b6117078482856116be565b509392505050565b600082601f830112611724576117236115f7565b5b81356117348482602086016116cd565b91505092915050565b611746816114ad565b811461175157600080fd5b50565b6000813590506117638161173d565b92915050565b600080600080600060a0868803121561178557611784611418565b5b600086013567ffffffffffffffff8111156117a3576117a261141d565b5b6117af8882890161170f565b95505060206117c088828901611754565b945050604086013567ffffffffffffffff8111156117e1576117e061141d565b5b6117ed8882890161170f565b935050606086013567ffffffffffffffff81111561180e5761180d61141d565b5b61181a8882890161170f565b925050608086013567ffffffffffffffff81111561183b5761183a61141d565b5b6118478882890161170f565b9150509295509295909350565b6000819050919050565b600061187961187461186f84611422565b611854565b611422565b9050919050565b600061188b8261185e565b9050919050565b600061189d82611880565b9050919050565b6118ad81611892565b82525050565b60006020820190506118c860008301846118a4565b92915050565b600081519050919050565b600082825260208201905092915050565b60005b838110156119085780820151818401526020810190506118ed565b83811115611917576000848401525b50505050565b6000611928826118ce565b61193281856118d9565b93506119428185602086016118ea565b61194b81611601565b840191505092915050565b600060c0820190508181036000830152611970818961191d565b905061197f60208301886114b7565b8181036040830152611991818761191d565b905081810360608301526119a5818661191d565b905081810360808301526119b9818561191d565b90506119c860a08301846114b7565b979650505050505050565b6000602082840312156119e9576119e8611418565b5b60006119f784828501611754565b91505092915050565b600060208284031215611a1657611a15611418565b5b600082013567ffffffffffffffff811115611a3457611a3361141d565b5b611a408482850161170f565b91505092915050565b611a5281611442565b82525050565b6000602082019050611a6d6000830184611a49565b92915050565b600081519050611a828161173d565b92915050565b600060208284031215611a9e57611a9d611418565b5b6000611aac84828501611a73565b91505092915050565b7f4e6f74207468652061646d696e00000000000000000000000000000000000000600082015250565b6000611aeb600d836118d9565b9150611af682611ab5565b602082019050919050565b60006020820190508181036000830152611b1a81611ade565b9050919050565b7f4e487b7100000000000000000000000000000000000000000000000000000000600052603260045260246000fd5b7f4e487b7100000000000000000000000000000000000000000000000000000000600052601160045260246000fd5b6000611b8a826114ad565b9150611b95836114ad565b925082821015611ba857611ba7611b50565b5b828203905092915050565b6000611bbe826114ad565b9150611bc9836114ad565b9250827fffffffffffffffffffffffffffffffffffffffffffffffffffffffffffffffff03821115611bfe57611bfd611b50565b5b828201905092915050565b6000611c14826114ad565b91507fffffffffffffffffffffffffffffffffffffffffffffffffffffffffffffffff8203611c4657611c45611b50565b5b600182019050919050565b7f4e487b7100000000000000000000000000000000000000000000000000000000600052602260045260246000fd5b60006002820490506001821680611c9857607f821691505b602082108103611cab57611caa611c51565b5b50919050565b7f65697468657220656e74727920616c726561647920657869737473206f72206e60008201527f616d6520656e746572656420776173206e756c6c000000000000000000000000602082015250565b6000611d0d6034836118d9565b9150611d1882611cb1565b604082019050919050565b60006020820190508181036000830152611d3c81611d00565b9050919050565b600081905092915050565b60008190508160005260206000209050919050565b60008154611d7081611c80565b611d7a8186611d43565b94506001821660008114611d955760018114611da657611dd9565b60ff19831686528186019350611dd9565b611daf85611d4e565b60005b83811015611dd157815481890152600182019150602081019050611db2565b838801955050505b50505092915050565b6000611dee8284611d63565b91508190509291505056fea2646970667358221220fc117325f83fa78d021013cf4a90aeefb011dd073347776c2cddc42ac44feede64736f6c634300080d0033",
  "immutableReferences": {},
  "source": "\n\npragma solidity ^0.8.7;\n\nimport \"./Tracking.sol\";\n\n// contract to store database of supply chain parties and their reputations\ncontract Reputation {\n    // call the Tracking contract at its deployed address\n    // need to include Tracking contract code at the end\n    Tracking public track = Tracking(0xd9145CCE52D386f254917e481eB44e9943F39138);\n    address admin;\n    mapping (address => Supplier) suppliers;\n    address[] suppliersByAddress; // array of all suppliers' accounts\n    struct Supplier {\n        string name;\n        uint phoneNo;\n        string cityState;\n        string country;\n        string goodsType;\n        uint reputation;\n    }\n    // constructor - runs once when contract is deployed\n    constructor() {\n        admin = msg.sender;\n    }\n    // modifier to allow only admin to execute a function\n    modifier onlyAdmin() {\n        require(msg.sender == admin, \"Not the admin\");\n        _;\n    }\n    // function for supplier to add their details to database\n    function addSupplier(string memory _name, uint _phoneNo, string memory _cityState, string memory _country, string memory _goodsType) public returns (bool success) {\n        // don't overwrite existing entries and ensure name isn't null\n        require (bytes(suppliers[msg.sender].name).length == 0 && bytes(_name).length != 0, \"either entry already exists or name entered was null\");\n        suppliers[msg.sender].name = _name;\n        suppliers[msg.sender].phoneNo = _phoneNo;\n        suppliers[msg.sender].cityState = _cityState;\n        suppliers[msg.sender].country = _country;\n        suppliers[msg.sender].goodsType = _goodsType;\n        suppliers [msg. sender] .reputation =\n        track.calculateReputation(msg.sender);\n        suppliersByAddress.push(msg.sender);\n        return true;   \n    }\n    // function to remove supplier from database (can only be done by admin)\n    function removeSupplier(address _supplier) onlyAdmin public returns (bool success) {\n        delete suppliers[_supplier];\n        // delete entry from array and shorten array\n        for (uint i = 0; i < suppliersByAddress.length; i++) {\n            if (suppliersByAddress[i] == _supplier) {\n                for (uint index = i; index < suppliersByAddress.length - 1; index++) {\n                    suppliersByAddress[index] =\n                    suppliersByAddress[index + 1];\n                }\n                delete suppliersByAddress[suppliersByAddress.length - 1];\n                \n            }\n        }\n        return true;\n    }\n    // function to display details of supplier\n    function findSupplier(address _supplier) public view returns (string memory, uint, string memory, string memory, string memory, uint) {\n        return (suppliers[_supplier].name,\n                suppliers [_supplier]. phoneNo, suppliers[_supplier].cityState,\n                suppliers [_supplier]. country, suppliers[_supplier].goodsType,\n                suppliers [_supplier]. reputation);\n    }\n    // function to display all suppliers' accounts in database\n    function allSuppliers() public view returns (address[] memory) {\n        return suppliersByAddress;\n    }\n    // function to search for suppliers by type of goods\n    function filterByGoodsType(string memory _goodsType) public view returns (address[] memory) {\n        address[] memory filteredGoods = new address [] (suppliersByAddress.length);\n        for (uint i = 0; i < suppliersByAddress.length; i++) {\n            if (keccak256(bytes(suppliers[suppliersByAddress[i]].goodsType)) ==keccak256(bytes(_goodsType))) {\n                filteredGoods[i] = suppliersByAddress[i];\n            }\n        }\n        return filteredGoods;\n    }\n    // function to search for suppliers by reputation (returns those with same or higher reputation)\n    function filterByReputation(uint _reputation) public view returns(address[] memory) {\n        address[] memory filteredRep = new address [] (suppliersByAddress. length);\n        for (uint i = 0; i < suppliersByAddress.length; i++) {\n            if (suppliers[suppliersByAddress[i]].reputation >= _reputation) {\n                filteredRep[i] = suppliersByAddress[i];\n            }\n        }\n        return filteredRep;\n    }\n    // function to display reputation of supplier (calls Tracking contract)\n    function checkReputation(address _supplier) public view returns (uint) {\n        return track.calculateReputation(_supplier);\n    }\n    // function to update reputations of all suppliers (calls Tracking contract)\n    // can only be done by admin\n    function updateReputations() onlyAdmin public returns (bool success) {\n        for (uint i = 0; i < suppliersByAddress.length; i++) {\n            suppliers[suppliersByAddress[i]].reputation = track.calculateReputation(suppliersByAddress[i]);\n        }\n        return true;\n    }\n}",
  "sourcePath": "/home/toor/projets/Blockchain/Supply_chain_management/contracts/Reputation.sol",
  "compiler": {
    "name": "solc",
    "version": "0.8.13+commit.abaa5c0e.Emscripten.clang"
  },
  "schemaVersion": "3.4.6",
  "updatedAt": "2022-05-07T03:30:23.479Z",
  "networkType": "ethereum",
  "devdoc": {
    "kind": "dev",
    "methods": {},
    "version": 1
  },
  "userdoc": {
    "kind": "user",
    "methods": {},
    "version": 1
  }
}