{
  "contractName": "Tracking",
  "abi": [
    {
      "inputs": [],
      "stateMutability": "nonpayable",
      "type": "constructor"
    },
    {
      "anonymous": false,
      "inputs": [
        {
          "indexed": false,
          "internalType": "string",
          "name": "_message",
          "type": "string"
        }
      ],
      "name": "Failure",
      "type": "event"
    },
    {
      "anonymous": false,
      "inputs": [
        {
          "indexed": false,
          "internalType": "string",
          "name": "_message",
          "type": "string"
        },
        {
          "indexed": false,
          "internalType": "address",
          "name": "_from",
          "type": "address"
        },
        {
          "indexed": false,
          "internalType": "address",
          "name": "_to",
          "type": "address"
        },
        {
          "indexed": false,
          "internalType": "uint256",
          "name": "_amount",
          "type": "uint256"
        }
      ],
      "name": "Payment",
      "type": "event"
    },
    {
      "anonymous": false,
      "inputs": [
        {
          "indexed": false,
          "internalType": "string",
          "name": "_message",
          "type": "string"
        },
        {
          "indexed": false,
          "internalType": "string",
          "name": "trackingNo",
          "type": "string"
        },
        {
          "indexed": false,
          "internalType": "uint256[]",
          "name": "_locationData",
          "type": "uint256[]"
        },
        {
          "indexed": false,
          "internalType": "uint256",
          "name": "_timeStamp",
          "type": "uint256"
        },
        {
          "indexed": false,
          "internalType": "address",
          "name": "_sender",
          "type": "address"
        }
      ],
      "name": "Success",
      "type": "event"
    },
    {
      "inputs": [
        {
          "internalType": "address",
          "name": "_to",
          "type": "address"
        },
        {
          "internalType": "uint256",
          "name": "_amount",
          "type": "uint256"
        }
      ],
      "name": "sendToken",
      "outputs": [
        {
          "internalType": "bool",
          "name": "success",
          "type": "bool"
        }
      ],
      "stateMutability": "nonpayable",
      "type": "function"
    },
    {
      "inputs": [
        {
          "internalType": "address",
          "name": "_account",
          "type": "address"
        }
      ],
      "name": "getBalance",
      "outputs": [
        {
          "internalType": "uint256",
          "name": "_balance",
          "type": "uint256"
        }
      ],
      "stateMutability": "view",
      "type": "function",
      "constant": true
    },
    {
      "inputs": [
        {
          "internalType": "address",
          "name": "_from",
          "type": "address"
        },
        {
          "internalType": "uint256",
          "name": "_amount",
          "type": "uint256"
        }
      ],
      "name": "recoverToken",
      "outputs": [
        {
          "internalType": "bool",
          "name": "success",
          "type": "bool"
        }
      ],
      "stateMutability": "nonpayable",
      "type": "function"
    },
    {
      "inputs": [
        {
          "internalType": "uint256[]",
          "name": "_location",
          "type": "uint256[]"
        },
        {
          "internalType": "uint256",
          "name": "_leadTime",
          "type": "uint256"
        },
        {
          "internalType": "uint256",
          "name": "_payment",
          "type": "uint256"
        }
      ],
      "name": "setContractParameters",
      "outputs": [
        {
          "internalType": "bool",
          "name": "success",
          "type": "bool"
        }
      ],
      "stateMutability": "nonpayable",
      "type": "function"
    },
    {
      "inputs": [
        {
          "internalType": "string",
          "name": "trackingNo",
          "type": "string"
        },
        {
          "internalType": "string",
          "name": "_item",
          "type": "string"
        },
        {
          "internalType": "uint256",
          "name": "_quantity",
          "type": "uint256"
        },
        {
          "internalType": "uint256[]",
          "name": "_locationData",
          "type": "uint256[]"
        }
      ],
      "name": "sendShipment",
      "outputs": [
        {
          "internalType": "bool",
          "name": "success",
          "type": "bool"
        }
      ],
      "stateMutability": "nonpayable",
      "type": "function"
    },
    {
      "inputs": [
        {
          "internalType": "string",
          "name": "trackingNo",
          "type": "string"
        },
        {
          "internalType": "string",
          "name": "_item",
          "type": "string"
        },
        {
          "internalType": "uint256",
          "name": "_quantity",
          "type": "uint256"
        },
        {
          "internalType": "uint256[]",
          "name": "_locationData",
          "type": "uint256[]"
        }
      ],
      "name": "receiveShipment",
      "outputs": [
        {
          "internalType": "bool",
          "name": "success",
          "type": "bool"
        }
      ],
      "stateMutability": "nonpayable",
      "type": "function"
    },
    {
      "inputs": [
        {
          "internalType": "string",
          "name": "trackingNo",
          "type": "string"
        }
      ],
      "name": "deleteShipment",
      "outputs": [
        {
          "internalType": "bool",
          "name": "success",
          "type": "bool"
        }
      ],
      "stateMutability": "nonpayable",
      "type": "function"
    },
    {
      "inputs": [
        {
          "internalType": "string",
          "name": "trackingNo",
          "type": "string"
        }
      ],
      "name": "checkShipment",
      "outputs": [
        {
          "internalType": "string",
          "name": "",
          "type": "string"
        },
        {
          "internalType": "uint256",
          "name": "",
          "type": "uint256"
        },
        {
          "internalType": "uint256[]",
          "name": "",
          "type": "uint256[]"
        },
        {
          "internalType": "uint256",
          "name": "",
          "type": "uint256"
        },
        {
          "internalType": "address",
          "name": "",
          "type": "address"
        }
      ],
      "stateMutability": "view",
      "type": "function",
      "constant": true
    },
    {
      "inputs": [
        {
          "internalType": "address",
          "name": "_sender",
          "type": "address"
        }
      ],
      "name": "checkSuccess",
      "outputs": [
        {
          "internalType": "uint256",
          "name": "",
          "type": "uint256"
        },
        {
          "internalType": "uint256",
          "name": "",
          "type": "uint256"
        }
      ],
      "stateMutability": "view",
      "type": "function",
      "constant": true
    },
    {
      "inputs": [
        {
          "internalType": "address",
          "name": "_sender",
          "type": "address"
        }
      ],
      "name": "calculateReputation",
      "outputs": [
        {
          "internalType": "uint256",
          "name": "",
          "type": "uint256"
        }
      ],
      "stateMutability": "view",
      "type": "function",
      "constant": true
    }
  ],
  "bytecode": "0x608060405234801561001057600080fd5b50336000806101000a81548173ffffffffffffffffffffffffffffffffffffffff021916908373ffffffffffffffffffffffffffffffffffffffff160217905550633b9aca00600560008060009054906101000a900473ffffffffffffffffffffffffffffffffffffffff1673ffffffffffffffffffffffffffffffffffffffff1673ffffffffffffffffffffffffffffffffffffffff168152602001908152602001600020819055506122b3806100c96000396000f3fe608060405234801561001057600080fd5b506004361061009e5760003560e01c8063826e2e5111610066578063826e2e5114610194578063b29a8140146101c4578063c71bd24c146101f4578063e79bc33b14610224578063f8b2cb4f146102585761009e565b806327c06fd5146100a357806331742fa7146100d3578063412664ae1461010457806356992fe2146101345780635f176b5914610164575b600080fd5b6100bd60048036038101906100b891906112f3565b610288565b6040516100ca9190611339565b60405180910390f35b6100ed60048036038101906100e891906112f3565b610377565b6040516100fb929190611354565b60405180910390f35b61011e600480360381019061011991906113a9565b610403565b60405161012b9190611404565b60405180910390f35b61014e60048036038101906101499190611565565b61057c565b60405161015b9190611404565b60405180910390f35b61017e60048036038101906101799190611676565b61069e565b60405161018b9190611404565b60405180910390f35b6101ae60048036038101906101a991906116e5565b61075f565b6040516101bb9190611404565b60405180910390f35b6101de60048036038101906101d991906113a9565b610abe565b6040516101eb9190611404565b60405180910390f35b61020e600480360381019061020991906116e5565b610cc6565b60405161021b9190611404565b60405180910390f35b61023e60048036038101906102399190611565565b610f25565b60405161024f9594939291906118f5565b60405180910390f35b610272600480360381019061026d91906112f3565b6110e7565b60405161027f9190611339565b60405180910390f35b600080600660008473ffffffffffffffffffffffffffffffffffffffff1673ffffffffffffffffffffffffffffffffffffffff168152602001908152602001600020541461036d57600660008373ffffffffffffffffffffffffffffffffffffffff1673ffffffffffffffffffffffffffffffffffffffff16815260200190815260200160002054600760008473ffffffffffffffffffffffffffffffffffffffff1673ffffffffffffffffffffffffffffffffffffffff16815260200190815260200160002054606461035c9190611985565b6103669190611a0e565b9050610372565b600090505b919050565b600080600760008473ffffffffffffffffffffffffffffffffffffffff1673ffffffffffffffffffffffffffffffffffffffff16815260200190815260200160002054600660008573ffffffffffffffffffffffffffffffffffffffff1673ffffffffffffffffffffffffffffffffffffffff1681526020019081526020016000205491509150915091565b600081600560003373ffffffffffffffffffffffffffffffffffffffff1673ffffffffffffffffffffffffffffffffffffffff16815260200190815260200160002054101561048a577ffd5de27667e5407df5be0b6efb7f86ae8c40433040399a5e4d36a46ccc50638d60405161047990611ab1565b60405180910390a160009050610576565b81600560003373ffffffffffffffffffffffffffffffffffffffff1673ffffffffffffffffffffffffffffffffffffffff16815260200190815260200160002060008282546104d99190611ad1565b9250508190555081600560008573ffffffffffffffffffffffffffffffffffffffff1673ffffffffffffffffffffffffffffffffffffffff168152602001908152602001600020600082825461052f9190611b05565b925050819055507f26eb4a415baf730c62c6011b03653f5b8960baf7ad391bd18725e6caa4bfa4c933848460405161056993929190611ba7565b60405180910390a1600190505b92915050565b60008060009054906101000a900473ffffffffffffffffffffffffffffffffffffffff1673ffffffffffffffffffffffffffffffffffffffff163373ffffffffffffffffffffffffffffffffffffffff161461060d576040517f08c379a000000000000000000000000000000000000000000000000000000000815260040161060490611c3d565b60405180910390fd5b60048260405161061d9190611c99565b90815260200160405180910390206000808201600061063c9190611130565b60018201600061064c9190611130565b60028201600090556003820160006106649190611170565b60048201600090556005820160006101000a81549073ffffffffffffffffffffffffffffffffffffffff0219169055505060019050919050565b60008060009054906101000a900473ffffffffffffffffffffffffffffffffffffffff1673ffffffffffffffffffffffffffffffffffffffff163373ffffffffffffffffffffffffffffffffffffffff161461072f576040517f08c379a000000000000000000000000000000000000000000000000000000000815260040161072690611c3d565b60405180910390fd5b8360019080519060200190610745929190611191565b508260028190555081600381905550600190509392505050565b6000600354600560003373ffffffffffffffffffffffffffffffffffffffff1673ffffffffffffffffffffffffffffffffffffffff1681526020019081526020016000205410156107e5576040517f08c379a00000000000000000000000000000000000000000000000000000000081526004016107dc90611d22565b60405180910390fd5b83805190602001206004866040516107fd9190611c99565b908152602001604051809103902060010160405161081b9190611e41565b604051809103902014801561085057508260048660405161083c9190611c99565b908152602001604051809103902060020154145b15610a7c5760016007600060048860405161086b9190611c99565b908152602001604051809103902060050160009054906101000a900473ffffffffffffffffffffffffffffffffffffffff1673ffffffffffffffffffffffffffffffffffffffff1673ffffffffffffffffffffffffffffffffffffffff16815260200190815260200160002060008282546108e69190611b05565b925050819055507f6d5fd9f24176dbb1bcb1e48cb31e1bbd5f7a6cc07a00d0d9ad19c0a313349411858342336040516109229493929190611ea4565b60405180910390a160025460048660405161093d9190611c99565b9081526020016040518091039020600401546109599190611b05565b42111580156109a15750600160008154811061097857610977611f0a565b5b90600052602060002001548260008151811061099757610996611f0a565b5b6020026020010151145b80156109e55750600180815481106109bc576109bb611f0a565b5b9060005260206000200154826001815181106109db576109da611f0a565b5b6020026020010151145b15610a3d57610a376004866040516109fd9190611c99565b908152602001604051809103902060050160009054906101000a900473ffffffffffffffffffffffffffffffffffffffff16600354610403565b50610a73565b7ffd5de27667e5407df5be0b6efb7f86ae8c40433040399a5e4d36a46ccc50638d604051610a6a90611fab565b60405180910390a15b60019050610ab6565b7ffd5de27667e5407df5be0b6efb7f86ae8c40433040399a5e4d36a46ccc50638d604051610aa990612017565b60405180910390a1600090505b949350505050565b60008060009054906101000a900473ffffffffffffffffffffffffffffffffffffffff1673ffffffffffffffffffffffffffffffffffffffff163373ffffffffffffffffffffffffffffffffffffffff1614610b4f576040517f08c379a0000000000000000000000000000000000000000000000000000000008152600401610b4690611c3d565b60405180910390fd5b81600560008573ffffffffffffffffffffffffffffffffffffffff1673ffffffffffffffffffffffffffffffffffffffff168152602001908152602001600020541015610bd4577ffd5de27667e5407df5be0b6efb7f86ae8c40433040399a5e4d36a46ccc50638d604051610bc390612083565b60405180910390a160009050610cc0565b81600560008573ffffffffffffffffffffffffffffffffffffffff1673ffffffffffffffffffffffffffffffffffffffff1681526020019081526020016000206000828254610c239190611ad1565b9250508190555081600560003373ffffffffffffffffffffffffffffffffffffffff1673ffffffffffffffffffffffffffffffffffffffff1681526020019081526020016000206000828254610c799190611b05565b925050819055507f26eb4a415baf730c62c6011b03653f5b8960baf7ad391bd18725e6caa4bfa4c9833384604051610cb3939291906120ef565b60405180910390a1600190505b92915050565b600080600486604051610cd99190611c99565b90815260200160405180910390206000018054610cf590611d71565b905014610d37576040517f08c379a0000000000000000000000000000000000000000000000000000000008152600401610d2e906121ab565b60405180910390fd5b84600486604051610d489190611c99565b90815260200160405180910390206000019080519060200190610d6c9291906111de565b5083600486604051610d7e9190611c99565b90815260200160405180910390206001019080519060200190610da29291906111de565b5082600486604051610db49190611c99565b90815260200160405180910390206002018190555081600486604051610dda9190611c99565b90815260200160405180910390206003019080519060200190610dfe929190611191565b5042600486604051610e109190611c99565b90815260200160405180910390206004018190555033600486604051610e369190611c99565b908152602001604051809103902060050160006101000a81548173ffffffffffffffffffffffffffffffffffffffff021916908373ffffffffffffffffffffffffffffffffffffffff1602179055506001600660003373ffffffffffffffffffffffffffffffffffffffff1673ffffffffffffffffffffffffffffffffffffffff1681526020019081526020016000206000828254610ed59190611b05565b925050819055507f6d5fd9f24176dbb1bcb1e48cb31e1bbd5f7a6cc07a00d0d9ad19c0a31334941185834233604051610f119493929190612217565b60405180910390a160019050949350505050565b606060006060600080600486604051610f3e9190611c99565b9081526020016040518091039020600101600487604051610f5f9190611c99565b908152602001604051809103902060020154600488604051610f819190611c99565b9081526020016040518091039020600301600489604051610fa29190611c99565b90815260200160405180910390206004015460048a604051610fc49190611c99565b908152602001604051809103902060050160009054906101000a900473ffffffffffffffffffffffffffffffffffffffff1684805461100290611d71565b80601f016020809104026020016040519081016040528092919081815260200182805461102e90611d71565b801561107b5780601f106110505761010080835404028352916020019161107b565b820191906000526020600020905b81548152906001019060200180831161105e57829003601f168201915b50505050509450828054806020026020016040519081016040528092919081815260200182805480156110cd57602002820191906000526020600020905b8154815260200190600101908083116110b9575b505050505092509450945094509450945091939590929450565b6000600560008373ffffffffffffffffffffffffffffffffffffffff1673ffffffffffffffffffffffffffffffffffffffff168152602001908152602001600020549050919050565b50805461113c90611d71565b6000825580601f1061114e575061116d565b601f01602090049060005260206000209081019061116c9190611264565b5b50565b508054600082559060005260206000209081019061118e9190611264565b50565b8280548282559060005260206000209081019282156111cd579160200282015b828111156111cc5782518255916020019190600101906111b1565b5b5090506111da9190611264565b5090565b8280546111ea90611d71565b90600052602060002090601f01602090048101928261120c5760008555611253565b82601f1061122557805160ff1916838001178555611253565b82800160010185558215611253579182015b82811115611252578251825591602001919060010190611237565b5b5090506112609190611264565b5090565b5b8082111561127d576000816000905550600101611265565b5090565b6000604051905090565b600080fd5b600080fd5b600073ffffffffffffffffffffffffffffffffffffffff82169050919050565b60006112c082611295565b9050919050565b6112d0816112b5565b81146112db57600080fd5b50565b6000813590506112ed816112c7565b92915050565b6000602082840312156113095761130861128b565b5b6000611317848285016112de565b91505092915050565b6000819050919050565b61133381611320565b82525050565b600060208201905061134e600083018461132a565b92915050565b6000604082019050611369600083018561132a565b611376602083018461132a565b9392505050565b61138681611320565b811461139157600080fd5b50565b6000813590506113a38161137d565b92915050565b600080604083850312156113c0576113bf61128b565b5b60006113ce858286016112de565b92505060206113df85828601611394565b9150509250929050565b60008115159050919050565b6113fe816113e9565b82525050565b600060208201905061141960008301846113f5565b92915050565b600080fd5b600080fd5b6000601f19601f8301169050919050565b7f4e487b7100000000000000000000000000000000000000000000000000000000600052604160045260246000fd5b61147282611429565b810181811067ffffffffffffffff821117156114915761149061143a565b5b80604052505050565b60006114a4611281565b90506114b08282611469565b919050565b600067ffffffffffffffff8211156114d0576114cf61143a565b5b6114d982611429565b9050602081019050919050565b82818337600083830152505050565b6000611508611503846114b5565b61149a565b90508281526020810184848401111561152457611523611424565b5b61152f8482856114e6565b509392505050565b600082601f83011261154c5761154b61141f565b5b813561155c8482602086016114f5565b91505092915050565b60006020828403121561157b5761157a61128b565b5b600082013567ffffffffffffffff81111561159957611598611290565b5b6115a584828501611537565b91505092915050565b600067ffffffffffffffff8211156115c9576115c861143a565b5b602082029050602081019050919050565b600080fd5b60006115f26115ed846115ae565b61149a565b90508083825260208201905060208402830185811115611615576116146115da565b5b835b8181101561163e578061162a8882611394565b845260208401935050602081019050611617565b5050509392505050565b600082601f83011261165d5761165c61141f565b5b813561166d8482602086016115df565b91505092915050565b60008060006060848603121561168f5761168e61128b565b5b600084013567ffffffffffffffff8111156116ad576116ac611290565b5b6116b986828701611648565b93505060206116ca86828701611394565b92505060406116db86828701611394565b9150509250925092565b600080600080608085870312156116ff576116fe61128b565b5b600085013567ffffffffffffffff81111561171d5761171c611290565b5b61172987828801611537565b945050602085013567ffffffffffffffff81111561174a57611749611290565b5b61175687828801611537565b935050604061176787828801611394565b925050606085013567ffffffffffffffff81111561178857611787611290565b5b61179487828801611648565b91505092959194509250565b600081519050919050565b600082825260208201905092915050565b60005b838110156117da5780820151818401526020810190506117bf565b838111156117e9576000848401525b50505050565b60006117fa826117a0565b61180481856117ab565b93506118148185602086016117bc565b61181d81611429565b840191505092915050565b600081519050919050565b600082825260208201905092915050565b6000819050602082019050919050565b61185d81611320565b82525050565b600061186f8383611854565b60208301905092915050565b6000602082019050919050565b600061189382611828565b61189d8185611833565b93506118a883611844565b8060005b838110156118d95781516118c08882611863565b97506118cb8361187b565b9250506001810190506118ac565b5085935050505092915050565b6118ef816112b5565b82525050565b600060a082019050818103600083015261190f81886117ef565b905061191e602083018761132a565b81810360408301526119308186611888565b905061193f606083018561132a565b61194c60808301846118e6565b9695505050505050565b7f4e487b7100000000000000000000000000000000000000000000000000000000600052601160045260246000fd5b600061199082611320565b915061199b83611320565b9250817fffffffffffffffffffffffffffffffffffffffffffffffffffffffffffffffff04831182151516156119d4576119d3611956565b5b828202905092915050565b7f4e487b7100000000000000000000000000000000000000000000000000000000600052601260045260246000fd5b6000611a1982611320565b9150611a2483611320565b925082611a3457611a336119df565b5b828204905092915050565b7f496e73756666696369656e742066756e647320746f2073656e64207061796d6560008201527f6e74000000000000000000000000000000000000000000000000000000000000602082015250565b6000611a9b6022836117ab565b9150611aa682611a3f565b604082019050919050565b60006020820190508181036000830152611aca81611a8e565b9050919050565b6000611adc82611320565b9150611ae783611320565b925082821015611afa57611af9611956565b5b828203905092915050565b6000611b1082611320565b9150611b1b83611320565b9250827fffffffffffffffffffffffffffffffffffffffffffffffffffffffffffffffff03821115611b5057611b4f611956565b5b828201905092915050565b7f5061796d656e742073656e740000000000000000000000000000000000000000600082015250565b6000611b91600c836117ab565b9150611b9c82611b5b565b602082019050919050565b60006080820190508181036000830152611bc081611b84565b9050611bcf60208301866118e6565b611bdc60408301856118e6565b611be9606083018461132a565b949350505050565b7f4e6f74207468652061646d696e00000000000000000000000000000000000000600082015250565b6000611c27600d836117ab565b9150611c3282611bf1565b602082019050919050565b60006020820190508181036000830152611c5681611c1a565b9050919050565b600081905092915050565b6000611c73826117a0565b611c7d8185611c5d565b9350611c8d8185602086016117bc565b80840191505092915050565b6000611ca58284611c68565b915081905092915050565b7f4e6f20656e61756768206d6f6e657920746f20636f6d706c657465207468697360008201527f206f7065726174696f6e00000000000000000000000000000000000000000000602082015250565b6000611d0c602a836117ab565b9150611d1782611cb0565b604082019050919050565b60006020820190508181036000830152611d3b81611cff565b9050919050565b7f4e487b7100000000000000000000000000000000000000000000000000000000600052602260045260246000fd5b60006002820490506001821680611d8957607f821691505b602082108103611d9c57611d9b611d42565b5b50919050565b600081905092915050565b60008190508160005260206000209050919050565b60008154611dcf81611d71565b611dd98186611da2565b94506001821660008114611df45760018114611e0557611e38565b60ff19831686528186019350611e38565b611e0e85611dad565b60005b83811015611e3057815481890152600182019150602081019050611e11565b838801955050505b50505092915050565b6000611e4d8284611dc2565b915081905092915050565b7f4974656d20726563656976656400000000000000000000000000000000000000600082015250565b6000611e8e600d836117ab565b9150611e9982611e58565b602082019050919050565b600060a0820190508181036000830152611ebd81611e81565b90508181036020830152611ed181876117ef565b90508181036040830152611ee58186611888565b9050611ef4606083018561132a565b611f0160808301846118e6565b95945050505050565b7f4e487b7100000000000000000000000000000000000000000000000000000000600052603260045260246000fd5b7f5061796d656e74206e6f7420747269676765726564206173206372697465726960008201527f61206e6f74206d65740000000000000000000000000000000000000000000000602082015250565b6000611f956029836117ab565b9150611fa082611f39565b604082019050919050565b60006020820190508181036000830152611fc481611f88565b9050919050565b7f4572726f7220696e206974656d2f7175616e7469747900000000000000000000600082015250565b60006120016016836117ab565b915061200c82611fcb565b602082019050919050565b6000602082019050818103600083015261203081611ff4565b9050919050565b7f496e73756666696369656e742066756e647320666f72207265636f7665727900600082015250565b600061206d601f836117ab565b915061207882612037565b602082019050919050565b6000602082019050818103600083015261209c81612060565b9050919050565b7f46756e6473207265636f76657265640000000000000000000000000000000000600082015250565b60006120d9600f836117ab565b91506120e4826120a3565b602082019050919050565b60006080820190508181036000830152612108816120cc565b905061211760208301866118e6565b61212460408301856118e6565b612131606083018461132a565b949350505050565b7f536869706d656e74207472616b696e67206e756d20616c72656164792065786960008201527f7374000000000000000000000000000000000000000000000000000000000000602082015250565b60006121956022836117ab565b91506121a082612139565b604082019050919050565b600060208201905081810360008301526121c481612188565b9050919050565b7f4974656d20736869707065640000000000000000000000000000000000000000600082015250565b6000612201600c836117ab565b915061220c826121cb565b602082019050919050565b600060a0820190508181036000830152612230816121f4565b9050818103602083015261224481876117ef565b905081810360408301526122588186611888565b9050612267606083018561132a565b61227460808301846118e6565b9594505050505056fea2646970667358221220e6b3fb2d0464e8c63ce241ae5954b785b76f210aaabaf629e63863f98b18a0b764736f6c634300080d0033",
  "immutableReferences": {},
  "source": "\n\npragma solidity ^0.8.7;\n\n// contract to allow supply chain parties to track shipment of goods and automatically execute payment in tokens\ncontract Tracking {\n    address admin;\n    uint[] contractLocation; // array containing lat & long\n    uint contractLeadTime; // in seconds\n    uint contractPayment; // in tokens\n    mapping (string => Shipment) shipments;\n    mapping (address => uint) balances;\n    mapping (address => uint) totalShipped; // total number of shipments made\n    mapping (address => uint) successShipped; // number of shipments successfully completed\n    struct Shipment {\n        string trackingNo;\n        string item;\n        uint quantity;\n        uint[] locationData;\n        uint timeStamp;\n        address sender;\n    }\n    // events to display messages when certain transactions are executed\n    event Success(string _message, string trackingNo, uint[]\n                _locationData, uint _timeStamp, address _sender);\n\n    event Payment(string _message, address _from, address _to, uint\n                _amount);\n\n    event Failure(string _message);\n\n    // constructor - runs once when contract is deployed\n    // determine initial token supply upon contract deployment\n    constructor() {\n        admin = msg.sender;\n        balances[admin] = 1000000000; // all tokens he ld by admin initially\n    }\n       \n    // modifier to allow only admin to execute a function\n    modifier onlyAdmin() {\n        require(msg.sender == admin, \"Not the admin\");\n        _;\n    }\n    // function to send tokens from one account to another\n    function sendToken(address _to, uint _amount) public returns (bool success) {\n        if (balances[msg.sender] < _amount) {\n            emit Failure('Insufficient funds to send payment');\n            return false;\n        }\n        balances[msg.sender] -= _amount;\n        balances[_to] += _amount;\n        emit Payment('Payment sent', msg.sender, _to, _amount);\n        return true;\n    }\n    // function to show token balance of an account\n    function getBalance(address _account) public view returns (uint _balance) {\n        return balances[_account];\n    }\n    // function to recover tokens from an account (can only be done by admin)\n    // in the event that the sendToken function gets abused\n    function recoverToken(address _from, uint _amount) onlyAdmin public returns (bool success) {\n        if (balances[_from] < _amount) {\n            emit Failure('Insufficient funds for recovery');\n            return false;\n        }\n        balances[_from] -= _amount;\n        balances[msg.sender] += _amount;\n        emit Payment('Funds recovered', _from, msg.sender, _amount);\n        return true;\n    }\n    // function to set contract parameters for next leg of shipment (can only be done by admin)\n    function setContractParameters(uint[] memory _location, uint _leadTime, uint _payment) onlyAdmin public returns (bool success) {\n        contractLocation = _location; // set next location that will receive shipment\n        contractLeadTime = _leadTime; // set acceptable lead time for next leg of shipment\n        contractPayment = _payment; // set payment amount for completing next leg of shipment\n        return true;\n    }\n    // function for party to input details of shipment that was sent\n    function sendShipment(string memory trackingNo, string memory _item, uint _quantity, uint[] memory _locationData) public returns (bool success) {\n        // require (contractLocation[0] != 0 || contractLocation[1] != 0 && contractLeadTime != 0 && contractPayment != 0, \"Set all the contract Parameters\");\n        require(bytes(shipments[trackingNo].trackingNo).length == 0, \"Shipment traking num already exist\");\n        shipments[trackingNo].trackingNo = trackingNo;\n        shipments[trackingNo].item = _item;\n        shipments[trackingNo].quantity = _quantity;\n        shipments[trackingNo].locationData = _locationData;\n        shipments[trackingNo].timeStamp = block.timestamp;\n        shipments[trackingNo].sender = msg.sender;\n        totalShipped[msg.sender] += 1;\n        emit Success('Item shipped', trackingNo, _locationData, block.timestamp, msg.sender);\n        return true;\n    }\n    // function for party to input details of shipment that was received\n    function receiveShipment(string memory trackingNo, string memory _item, uint _quantity, uint[] memory _locationData) public returns (bool success) {\n        require (balances[msg.sender] >= contractPayment, \"No enaugh money to complete this operation\");\n        // check that item and quantity received match item and quantity shipped\n        if (keccak256(bytes(shipments[trackingNo].item)) == keccak256(bytes(_item)) && shipments[trackingNo].quantity == _quantity) {\n            successShipped[shipments[trackingNo].sender] += 1;\n            emit Success('Item received', trackingNo, _locationData, block.timestamp, msg.sender);\n            // execute payment if item received on time and location correct\n            if (block.timestamp <= shipments[trackingNo].timeStamp + contractLeadTime && _locationData[0] == contractLocation[0] && _locationData[1] == contractLocation[1]) {\n                sendToken(shipments[trackingNo].sender, contractPayment);\n            }\n            else {\n                emit Failure('Payment not triggered as criteria not met');\n            }\n            return true;\n        }\n        else {\n            emit Failure('Error in item/quantity');\n                return false;\n        }\n    }\n    // function to remove details of shipment from database (can only be done by admin)\n    function deleteShipment(string memory trackingNo) onlyAdmin public returns (bool success) {\n        delete shipments[trackingNo];\n        return true;\n    }\n    // function to display details of shipment\n    function checkShipment(string memory trackingNo) public view returns (string memory, uint, uint[] memory, uint, address) {\n        return (\n                shipments[trackingNo].item, \n                shipments[trackingNo].quantity, \n                shipments[trackingNo].locationData,\n                shipments[trackingNo].timeStamp, \n                shipments[trackingNo].sender\n                );\n    }\n    // function to display number of successfully completed shipments and total shipments for a party\n    function checkSuccess(address _sender) public view returns (uint, uint) {\n        return (successShipped[_sender], totalShipped[_sender]);\n    }\n    // function to calculate reputation score of a party (percentage of successfully completed shipments)\n    function calculateReputation(address _sender) public view returns (uint) {\n        if (totalShipped[_sender] != 0) {\n            return (100 * successShipped[_sender] / totalShipped[_sender]);\n        }\n        else {\n            return 0;\n        }\n    }\n}",
  "sourcePath": "/home/toor/projets/Blockchain/Supply_chain_management/contracts/Tracking.sol",
  "compiler": {
    "name": "solc",
    "version": "0.8.13+commit.abaa5c0e.Emscripten.clang"
  },
  "schemaVersion": "3.4.6",
  "updatedAt": "2022-05-07T03:30:22.759Z",
  "networkType": "ethereum",
  "devdoc": {
    "kind": "dev",
    "methods": {},
    "version": 1
  },
  "userdoc": {
    "kind": "user",
    "methods": {},
    "version": 1
  }
}